:10000000F0300120115A0000EBF20300FD5900000E
:10001000FD590000FD590000FD59000000000000DE
:10002000000000000000000000000000555A000021
:10003000FD59000000000000415C0000FD59000077
:10004000B15C00002BF30300B15C0000B15C000068
:10005000B15C0000B15C0000B15C0000B15C00006C
:10006000B15C0000B15C0000B15C0000B15C00005C
:10007000B15C0000B15C0000B15C0000B15C00004C
:10008000B15C0000B15C0000B15C0000B15C00003C
:10009000B15C0000B15C0000B15C0000B15C00002C
:1000A000B15C0000B15C0000B15C0000B15C00001C
:1000B000B15C0000B15C0000B15C0000B15C00000C
:1000C000B15C0000B15C0000B15C0000B15C0000FC
:1000D000B15C0000B15C0000B15C0000B15C0000EC
:1000E000B15C0000B15C0000B15C0000B15C0000DC
:1000F000B15C0000B15C0000B15C0000B15C0000CC
:1001000081F0004102E000BF83F0004330B54FEAC8
:1001100041044FEA430594EA050F08BF90EA020F35
:100120001FBF54EA000C55EA020C7FEA645C7FEAC8
:10013000655C00F0E2804FEA5454D4EB5555B8BFEB
:100140006D420CDD2C4480EA020281EA030382EA5C
:10015000000083EA010180EA020281EA0303362DEE
:1001600088BF30BD11F0004F4FEA01314FF4801CC1
:100170004CEA113102D0404261EB410113F0004FD3
:100180004FEA03334CEA133302D0524263EB43038A
:1001900094EA050F00F0A780A4F10104D5F1200E28
:1001A0000DDB02FA0EFC22FA05F2801841F1000183
:1001B00003FA0EF2801843FA05F359410EE0A5F157
:1001C00020050EF1200E012A03FA0EFC28BF4CF088
:1001D000020C43FA05F3C01851EBE37101F000453E
:1001E00007D54FF0000EDCF1000C7EEB00006EEB4B
:1001F0000101B1F5801F1BD3B1F5001F0CD34908D5
:100200005FEA30004FEA3C0C04F101044FEA44522B
:1002100012F5800F80F09A80BCF1004F08BF5FEAB2
:10022000500C50F1000041EB045141EA050130BD92
:100230005FEA4C0C404141EB0101013C28BFB1F5A4
:10024000801FE9D291F0000F04BF01460020B1FAEF
:1002500081F308BF2033A3F10B03B3F120020CDAC2
:100260000C3208DD02F1140CC2F10C0201FA0CF0A0
:1002700021FA02F10CE002F11402D8BFC2F1200C05
:1002800001FA02F120FA0CFCDCBF41EA0C019040BB
:10029000E41AA2BF01EB0451294330BD6FEA040404
:1002A0001F3C1CDA0C340EDC04F11404C4F12002EF
:1002B00020FA04F001FA02F340EA030021FA04F301
:1002C00045EA030130BDC4F10C04C4F1200220FA58
:1002D00002F001FA04F340EA0300294630BD21FA96
:1002E00004F0294630BD94F0000F83F4801306BF5C
:1002F00081F480110134013D4EE77FEA645C18BF50
:100300007FEA655C29D094EA050F08BF90EA020FE6
:1003100005D054EA000C04BF1946104630BD91EADE
:10032000030F1EBF0021002030BD5FEA545C05D1E1
:100330004000494128BF41F0004130BD14F5800420
:100340003CBF01F5801130BD01F0004545F0FE4194
:1003500041F470014FF0000030BD7FEA645C1ABFC9
:10036000194610467FEA655C1CBF0B46024650EA00
:10037000013406BF52EA033591EA030F41F400212C
:1003800030BD00BF90F0000F04BF0021704730B5B2
:100390004FF4806404F132044FF000054FF0000187
:1003A00050E700BF90F0000F04BF0021704730B548
:1003B0004FF4806404F1320410F0004548BF40421D
:1003C0004FF000013EE700BF42004FEAE2014FEA72
:1003D00031014FEA02701FBF12F07F4393F07F4F4D
:1003E00081F06051704732F07F4208BF704793F050
:1003F0007F4F04BF41F40021704730B54FF4607463
:1004000001F0004521F000411CE700BF50EA010265
:1004100008BF704730B54FF000050AE050EA01020E
:1004200008BF704730B511F0004502D5404261EB7E
:1004300041014FF4806404F132045FEA915C3FF4BF
:10044000D8AE4FF003025FEADC0C18BF03325FEA5C
:10045000DC0C18BF033202EBDC02C2F1200300FA0D
:1004600003FC20FA02F001FA03FE40EA0E0021FA32
:1004700002F11444BDE600BF80F0004002E000BF7E
:1004800081F0004142001FBF5FEA410392EA030F7F
:100490007FEA226C7FEA236C6AD04FEA1262D2EBC9
:1004A0001363C1BFD218414048404140B8BF5B42CE
:1004B000192B88BF704710F0004F40F4000020F067
:1004C0007F4018BF404211F0004F41F4000121F07D
:1004D0007F4118BF494292EA030F3FD0A2F10102C7
:1004E00041FA03FC10EB0C00C3F1200301FA03F105
:1004F00000F0004302D5494260EB4000B0F5000F28
:1005000013D3B0F1807F06D340084FEA310102F1E6
:100510000102FE2A51D2B1F1004F40EBC25008BF98
:1005200020F0010040EA03007047490040EB000062
:10053000013A28BFB0F5000FEDD2B0FA80FCACF163
:10054000080CB2EB0C0200FA0CF0AABF00EBC25090
:1005500052421843BCBFD0401843704792F0000F7E
:1005600081F4000106BF80F400000132013BB5E7D1
:100570004FEA41037FEA226C18BF7FEA236C21D047
:1005800092EA030F04D092F0000F08BF08467047AC
:1005900090EA010F1CBF0020704712F07F4F04D17A
:1005A000400028BF40F00040704712F100723CBF8D
:1005B00000F50000704700F0004343F0FE4040F4B7
:1005C000000070477FEA226216BF08467FEA236375
:1005D0000146420206BF5FEA412390EA010F40F460
:1005E000800070474FF0000304E000BF10F00043AC
:1005F00048BF40425FEA000C08BF704743F0964393
:1006000001464FF000001CE050EA010208BF7047AD
:100610004FF000030AE000BF50EA010208BF704734
:1006200011F0004302D5404261EB41015FEA010C49
:1006300002BF84460146002043F0B64308BFA3F141
:100640008053A3F50003BCFA8CF2083AA3EBC25323
:1006500010DB01FA02FC634400FA02FCC2F1200242
:10066000BCF1004F20FA02F243EB020008BF20F079
:100670000100704702F1200201FA02FCC2F12002DF
:1006800050EA4C0021FA02F243EB020008BF20EAD4
:10069000DC7070474FF0FF0C1CEAD0521EBF1CEA02
:1006A000D15392EA0C0F93EA0C0F6FD01A4480EAF0
:1006B000010C400218BF5FEA41211ED04FF00063D9
:1006C00043EA501043EA5111A0FB01310CF0004005
:1006D000B1F5000F3EBF490041EAD3715B0040EA2B
:1006E000010062F17F02FD2A1DD8B3F1004F40EBFB
:1006F000C25008BF20F00100704790F0000F0CF0CE
:10070000004C08BF49024CEA502040EA51207F3A91
:10071000C2BFD2F1FF0340EAC250704740F400006C
:100720004FF00003013A5DDC12F1190FDCBF00F05D
:1007300000407047C2F10002410021FA02F1C2F10B
:10074000200200FA02FC5FEA310040F1000053EAA7
:100750004C0308BF20EADC70704792F0000F00F0F5
:10076000004C02BF400010F4000F013AF9D040EAFB
:100770000C0093F0000F01F0004C02BF490011F48F
:10078000000F013BF9D041EA0C018FE70CEAD1538D
:1007900092EA0C0F18BF93EA0C0F0AD030F0004C0D
:1007A00018BF31F0004CD8D180EA010000F00040C1
:1007B000704790F0000F17BF90F0004F084691F07F
:1007C000000F91F0004F14D092EA0C0F01D14202B9
:1007D0000FD193EA0C0F03D14B0218BF084608D182
:1007E00080EA010000F0004040F0FE4040F40000CC
:1007F000704740F0FE4040F4400070474FF0FF0C5F
:100800001CEAD0521EBF1CEAD15392EA0C0F93EAA5
:100810000C0F69D0A2EB030280EA010C49024FEAF7
:10082000402037D04FF0805343EA111143EA1013B0
:100830000CF000408B4238BF5B0042F17D024FF468
:10084000000C8B4224BF5B1A40EA0C00B3EB510F43
:1008500024BFA3EB510340EA5C00B3EB910F24BF2C
:10086000A3EB910340EA9C00B3EBD10F24BFA3EBB1
:10087000D10340EADC001B0118BF5FEA1C1CE0D179
:10088000FD2A3FF650AF8B4240EBC25008BF20F02C
:10089000010070470CF0004C4CEA50207F32C2BF80
:1008A000D2F1FF0340EAC250704740F400004FF01D
:1008B0000003013A37E792F0000F00F0004C02BF4E
:1008C000400010F4000F013AF9D040EA0C0093F018
:1008D000000F01F0004C02BF490011F4000F013B72
:1008E000F9D041EA0C0195E70CEAD15392EA0C0FDA
:1008F00008D142027FF47DAF93EA0C0F7FF470AF12
:10090000084676E793EA0C0F04D14B023FF44CAF54
:1009100008466EE730F0004C18BF31F0004CCAD1E9
:1009200030F000427FF45CAF31F000437FF43CAF25
:100930005FE700BF7BB972B90029BEBF00204FF04E
:10094000004106E008BF00281CBF6FF000414FF0D7
:10095000FF3000F057B8ADF1080C6DE904CE002966
:1009600009DB002B1ADB00F069F8DDF804E0DDE9B3
:10097000022304B07047404261EB4101002B1BDBB6
:1009800000F05CF8DDF804E0DDE9022304B0404249
:1009900061EB4101524263EB43037047524263EB08
:1009A000430300F04BF8DDF804E0DDE9022304B076
:1009B000404261EB41017047524263EB430300F058
:1009C0003DF8DDF804E0DDE9022304B0524263EBB8
:1009D0004303704753B94AB9002908BF00281CBF18
:1009E0004FF0FF314FF0FF3000F00CB8ADF1080CC4
:1009F0006DE904CE00F022F8DDF804E0DDE9022321
:100A000004B07047704700BF10F8012B11F8013B8C
:100A1000012A28BF9A42F7D0D01A7047034611F82E
:100A2000012B03F8012B002AF9D17047034613F874
:100A3000012B002AFBD1181A013870472DE9F04725
:100A40008C468E46089E154604461946002B40F0FB
:100A5000D080724547D9B2FA82F74FB1C7F120036F
:100A60000EFA07FC20FA03F3BD4043EA0C0CBC402D
:100A70004FEA154EA8B2BCFBFEF8230C0EFB18CCB7
:100A800008FB00F943EA0C43994528D9EB1808F113
:100A9000FF3204D2994502D9A8F102022B44A3EBFC
:100AA0000903A4B2B3FBFEFC0EFB1C330CFB00F0ED
:100AB00044EA0344A04214D92C190CF1FF3304D2A8
:100AC000A04202D9ACF102032C44241A43EA0240AA
:100AD0001EB1FC40002334607360BDE8F0874246DD
:100AE000DDE76346F1E7002A79D0B2FA82F3002B02
:100AF0003FD01946C1F1200302FA01F52EFA03F2A4
:100B00000EFA01FE20FA03F343EA0E034FEA154EF4
:100B100000FA01F4B2FBFEFCAFB20EFB1C201A0C73
:100B20000CFB07F842EA004290455AD9AA180CF18A
:100B3000FF3004D2904502D9ACF102002A44A2EB66
:100B400008029BB2B2FBFEFC0EFB1C220CFB07F75B
:100B500043EA02439F4246D9EB180CF1FF3204D21C
:100B60009F4202D9ACF102022B44DB1B42EA004255
:100B700002E0AEEB020301224FEA154EAFB2B3FB27
:100B8000FEFC200C0EFB1C330CFB07F840EA034371
:100B900098452AD9EB180CF1FF3004D2984502D9B8
:100BA000ACF102002B44A3EB0803A4B2B3FBFEFCA0
:100BB0000EFB1C330CFB07F744EA0344A74216D98B
:100BC0002C190CF1FF3304D2A74202D9ACF1020375
:100BD0002C44E41B43EA00400F46114678E71F21EE
:100BE00088E76046ABE76246BFE76046DBE76346FF
:100BF000EFE7734506D916B9002108466DE7C6E947
:100C0000000EF9E7B3FA83F787B9734501D382423F
:100C100007D8841A6EEB030301209C461EB90021FD
:100C20005BE73846FAE7C6E9004CF8E7C7F1200C65
:100C3000BB4022FA0CF51D4320FA0CF12EFA0CF3FE
:100C40000EFA07FE41EA0E014FEA154900FA07F4D1
:100C5000B3FBF9F81FFA85FE09FB18300B0C08FBF3
:100C60000EFA43EA00439A4502FA07F240D9EB181C
:100C700008F1FF3004D29A4502D9A8F102002B44B2
:100C8000A3EB0A0389B2B3FBF9F809FB183308FB9D
:100C90000EFE41EA03418E452CD9691808F1FF3355
:100CA00004D28E4502D9A8F10203294443EA004048
:100CB000A0FB0298A1EB0E014145CE46434602D36C
:100CC00006D14C4504D2B9EB020E68EB050301389E
:100CD000002EA4D0B4EB0E0261EB030101FA0CFC70
:100CE00022FA07F34CEA0303F940C6E9003196E71C
:100CF0004046C5E74346D9E738B51B4C9DF810E0A0
:100D000094F84CC01CF0010524D163F3420C40015F
:100D100094F83830A4F840104FEACE0E0EF0180EBA
:100D200000F0200040EA0E0023F0380303430F4890
:100D300084F838309121A2FB000384F84CC001FBF9
:100D4000023107A3D3E90023FFF744FEC4E91100F1
:100D5000284638BD0C25284638BD00BFAFF30080BB
:100D60008D49FD1A0700000048220020002AE78470
:100D700010B504469DF8080022864FEA411CC000C9
:100D800094F8281000F018000CF0200C4CEA000C2D
:100D90000B4821F038014CEA010CA3FB0002912121
:100DA00084F828C001FB032103A3D3E90023FFF744
:100DB00011FE606310BD00BF8D49FD1A07000000E1
:100DC000002AE784000000002DE9F043044600F10A
:100DD0003A0190F84C0094F838304D4DC0F3400083
:100DE00060F386138DB084F838300FF027F894F84C
:100DF0003820B4F840304748246102F079020027D7
:100E000084F838209121A3FB0002C4E902772770FF
:100E100001FB03213CA3D3E90023FFF7DBFDA26C18
:100E20003D4B651BA3FB053502F1090398428EBFBC
:100E300019463A4601466264616006460EF0B2FF0A
:100E40006369C5F3871500F10907002B41D00DF147
:100E50002C08CDF820800694B4F840302D4891211C
:100E6000A3FB000201FB03212C4B07932C4B0593A2
:100E70006368049302234FF000090B9322A3D3E984
:100E80000023CDF80C90FFF7A5FD104619464FF44E
:100E90007A720023FFF79EFD0235EDB2CDE90160C5
:100EA0000321CDF800903B462A4648460EF05EFEF0
:100EB00041460FF08BFC40B994F84C3043F00103ED
:100EC00084F84C300DB0BDE8F0830C200DB0BDE8C7
:100ED000F0830DF12C08CDE90A33616843460AAA74
:100EE000032000F06DFD0028B3D10B990D4806A337
:100EF000D3E90023A1FB0001FFF76CFD0A9B20F062
:100F00007F471F44A5E700BF8D49FD1A0700000079
:100F100048220020002AE784CDCCCCCCA5FE0000DE
:100F2000FD22010000CA9A3B2DE9F0418468A28CA1
:100F30004FF6FF739A428AB000F0CA8005462046F9
:100F400013F082FAAB7C012B00F0EA80022B00F058
:100F5000C28033B994F8563003F01803182B00F010
:100F6000228194F81C81B8F1000F40F0B880A68D62
:100F7000EB89E78D0136B6B2002B00F0B780A4F8FC
:100F800048812B7C03F00303012B00F0C480B4F8EC
:100F90004C31002B00F0CA80B34240F225819B1BEC
:100FA0009BB2062BA4F84C314FF000028CBF0023FB
:100FB0000123E285984694F83A2063F3820284F88C
:100FC0003A2031460DF12702204613F015F874300F
:100FD00000F00481B4F846312BB1B34240F2D38023
:100FE0009B1BA4F84631B4F842312BB1B34240F216
:100FF000C3809B1BA4F8423194F89930E58D03F02F
:101000000101B8F1000F0AD1AF4200F0B180013503
:10101000ADB241B9002D5BD04146404642E00135BA
:10102000ADB200293DD094F8993094F9372023F0DF
:101030000103002A84F89930C0F2928094F83B00B2
:10104000C0F3C00100F0070016F058F994F83B20F7
:1010500094F83C1002F003030933C2F34002DB00B2
:10106000D340E28B02F23F12134401F00302093233
:10107000C1F34001D200CA40134418446A4A6B4B82
:101080000721E0FB0231184665A3D3E90023FFF7EF
:10109000A1FC616820F07F40814280F09A80411A73
:1010A00060600020A28C246903950023604DCDF878
:1010B00010800332CDE9011006940093D2B20121D1
:1010C000184605950EF06EFD10F0FD0F40F0908073
:1010D0000AB0BDE8F0814FF03D0884F81C8141461C
:1010E00020460AB0BDE8F04111F0E8BD2B7C03F0CA
:1010F0000303012B0FD0B4F84831002B3FF447AF66
:10110000B34273D99B1BA4F84831B4F84C31002B7F
:101110007FF442AF02E00023A4F84C3100234AE7F9
:101120000023A4F84631A4F842311AE7E38C052BDA
:101130008BBF40F2E2424FF4FA725A4303FB0222A1
:10114000B4F84A3142F2107101FB0323013BB3FBB7
:10115000F2F39BB2A4F84C31002B7FF41DAFDDE716
:1011600094F83C00012100F0070016F0C9F86DE783
:101170000029ADD0454656E70023A4F84231204669
:1011800012F0AEFF38E70FF0DDFA0146002836D046
:101190000023A4F84631A38CC3801B23037100688D
:1011A0000FF0A2FA1FE7218DB4F844218B1D9A425B
:1011B000C4BF931F5B1AB4F84011CCBF9BB2134657
:1011C000994220D0A4F84031A4F84231A4F8462135
:1011D000C7E66060081A1CD0002163E79DF827105D
:1011E000204611F06BFD73E7082179E73E2177E790
:1011F0000FF0FEFA84423FF46BAF00DE68E7012394
:10120000A4F84631EFE6B4F8461100297FF4A9AE00
:10121000DAE70DB1014645E7B8F1000FDCD157E739
:101220008D49FD1A0700000000CA9A3B8C49FD1A3F
:1012300005260100000000002DE9F04F8FB0B0F846
:1012400018610D930446B0F8DC3090F83B000B9128
:101250001E44C0F3C001BDF86830BDF86C70BDF825
:101260006080BDF86490D4F8D4A00C9300F007001F
:1012700016F044F8E58CB6B2A6EB070B052D1FFA65
:101280008BFB40F2098115FB0BF5ADB240F2E24B4E
:10129000B8F1050F40F2F48094F83C2094F83B102C
:1012A00002F003032833C2F34002DB00D34001F015
:1012B00003022832B3F5A47FC1F340014FEAC20212
:1012C00022FA01F238BF4FF4A473B2F5A47F2CBF09
:1012D0009B1803F5A47303F2D51318447A4A7B4B89
:1012E0000721E0FB023118464FF09613E361962385
:1012F000238473A3D3E90023FFF76CFB434620F05C
:101300007F4040F2E2420BFB05F102FB03FB4A1E69
:101310005A44B2FBFBF293B20BFB03F399426060B9
:1013200095B280F09F806848591AA1FB000164A320
:10133000D3E90023FFF74EFB20F07F408244B4F84E
:10134000DC20B4F81831BF1B3D44ADB213442B442C
:10135000A4F81831638D1A4494F837301544DB092A
:1013600065857CD10D9B5848A3FB000154A3D3E9AC
:101370000023FFF72FFB20F07F4501350C9BA4F8DD
:101380004A3159462046A4F82680A4F8289012F045
:101390005FFE4F4B218D5B44881DB3FBFBF39AB27C
:1013A0009042A4F8442104D2C1F57F41FA310A44A5
:1013B00092B20B9BA4F8402113B10023A4F84C3146
:1013C0000221012017F086FC00220221064601209E
:1013D0000DF0A2FA3F494FF4AC7220460DF028FA06
:1013E000C21C3D4B0093D7B2019453463A460121AB
:1013F00000200EF053FC10F0FD0F5CD1324830A3FA
:10140000D3E90023ABFB0001FFF7E4FA1946334BA5
:101410000793334B089406940593636804934FF63F
:10142000FE7380460393104600234FF47A72FFF751
:10143000D1FA0095CDE9018053463A4601210020BA
:101440000EF094FB10F0FD0F33D166BB94F81A3107
:1014500043F0010384F81A310FB0BDE8F08F00DECD
:1014600000258BE71848C91AA1FB000114A3D3E992
:101470000023FFF7AFFA20F07F40AAEB000A5EE7F7
:101480004FF0961208F10103E261962222849BB28A
:101490000A204FF4FA7236E7013515FB0BF5ADB2B1
:1014A0004FF4FA7BF4E60122022110460DF034FAE3
:1014B000CCE700DEC9E700DEA0E700BFAFF30080A5
:1014C0008D49FD1A0700000000CA9A3B8C49FD1A9D
:1014D0007FC3C90198220020C5250100AD25010068
:1014E0002D670100000000002DE9F04F89B0CDE923
:1014F000020100209DF84C80BDF850A0BDF854B00A
:10150000BDF8589004921F4610F0BEFF002800F06E
:10151000218108F00105044628460EF081FC002DCB
:1015200049D1636904F110020592002B4AD0666923
:10153000356896F82B00C0F3C00100F0070015F0E5
:10154000DDFEF3899E4A00F2CF3003449D48072117
:10155000E3FB020198A3D3E90023FFF73BFA20F055
:101560007F40686094F84C1068F3420184F84C1096
:1015700094F8391067F30001DDE9022384F839108B
:1015800012990968A16112998988A1830499A4F824
:10159000249004F1100000910021FFF7E9FBA06402
:1015A00016F02AF8002840F0D9802046FFF70CFCFE
:1015B00009B0BDE8F08F06210DF04EF90028B0D13A
:1015C0001220F5E70FF078F80590002800F0E3808E
:1015D00011F08CF80546002800F0DA80143005F18F
:1015E00010060DF0FBFA002840F0DB80032105F126
:1015F000180015F0A5FD286DA5F828B04FF6FF726C
:10160000A5F826A0AA84002800F0C78005F14402AE
:1016100005F140010DF02CF995F83B2022F07F02F6
:1016200042F0190285F83B2095F8562022F0070277
:1016300085F8562095F83C2001214FF0000B61F30E
:10164000020285F83C20C5F850B0A5F854B0A5F8C2
:101650002AB0C5F82EB005F1320015F097F995F8CB
:10166000372060F30502012185F837200DF11F00B6
:1016700015F066FD9DF81F10534A85F839B0A2FB9E
:101680000102D20802EB4202A1EB820195F8372059
:10169000A5F818B102F03F0285F8372095F83A20F6
:1016A000A5F84CB1053122F0070240F2E24085F87E
:1016B000381085F83A20298D444AA5F84A9100FB54
:1016C0000AFA06205244A5F8480101F1060CB2FBC3
:1016D000FAF290B26045A5F846B1A5F842B1A5F876
:1016E000440102DD0638401A80B2A5F840012846C0
:1016F00012F046FC5146284612F0AAFC4FF0000AB0
:10170000059BC5F8203185F81CA111F017FA95F852
:10171000542160F3020285F8542111F015FA95F86E
:10172000542160F3C50285F8542195F81A216AF313
:10173000410285F81A2105F19C0012F05BFA4FF086
:101740009612C5E907226661C5E902AA85F800A0DC
:101750002D61EEE60C2009B0BDE8F08F65692B6CB9
:101760002BBB05F1340105F130000DF085F8E0B137
:101770002E682864D6F82001A8B10EF0A3FF3046E9
:1017800010F0BAFF00230320636109B0BDE8F08FB9
:1017900005980EF097FF07200AE705F14800286535
:1017A00034E700DE22E700DEE7E700DEE0E700DE08
:1017B000D7E700BFAFF300808D49FD1A0700000096
:1017C00000CA9A3B8C49FD1AABAAAAAA7FC3C901D9
:1017D0002DE9F04F0446037F406A8DB088461546D8
:1017E000C3F3401AC3F3C012E107238DADF82C30C8
:1017F0000A900AAB00F1CC809B880A98A277002758
:10180000A783A4F82330C4F81F00D8F800301E685E
:10181000EB8AE3842B8B2385B38C638515F03EFF25
:1018200084F82C00D5F80090484610F06BFF39463C
:10183000A882E080484612F01FFC20682146D8F8B4
:1018400004400EF045FFAA8A2768E2801C2323711A
:10185000BAF1000F40F09080534623772146384676
:101860000EF042FF95F82B00B5F816A0D8F80C70D2
:101870004D4C40F2E243C0F3C00100F0070003FB0F
:101880000AFA15F03BFD002202213F1A01200DF05B
:1018900043F8304610F0D2FDA7FB044740A3D3E93C
:1018A0000023054639462046FFF794F80196D8F8FC
:1018B00008303E49009120F07F46AA1C363BD2B248
:1018C0003344012100200EF0E9F910F0FD0F61D141
:1018D0004FF0000B012211465B46CDF800B0584690
:1018E0000EF0A8F9484610F00DFF05462E482CA32F
:1018F000D3E90023AAFB0001FFF76CF81946D8F8DA
:101900000830CDF81C90A3F13608294B0893294BD9
:10191000069340F272330993D9F804308246CDE938
:1019200004B3104600234FF47A72FFF753F8224BAA
:101930000722A6FB0331CDE902A002FB0611E01A43
:1019400067EB01014FF47A720023FFF743F8033588
:10195000EDB2CDE9006043462A46012158460EF01B
:10196000B7F810F0FD0F17D10122022110460DB07B
:10197000BDE8F04F0CF0D0BF95F8273043F040039E
:1019800085F82730281D15F04DF80123288564E7D8
:1019900000DE31E700DE9BE700DEE5E7AFF3008025
:1019A0008D49FD1A0700000000CA9A3B216701001B
:1019B000256701002D6701008D49FD1A0000000018
:1019C0002DE9F04F91B0FF270B930B1D0A930023D5
:1019D000CDE90D33054616468DF833709B460893C6
:1019E0003C46984699460DF1340A0FAB0693644B7A
:1019F0000593644B03930EAB0020CDE900A30223B3
:101A00000F930490029033460DF1330229460EF0F5
:101A10007BF9022813D00F9BBBB9FF2C18D0336879
:101A2000434515D0002F00F09180013FFF24FFB205
:101A30008DF83340D9E7294600200EF0A1F90F9B1D
:101A4000022BF8D00F9B002BE7D000DEFF2CE6D155
:101A50009DF83330FF2B49D0032BC6D1002010F066
:101A600059FE0028C1D090F93730002B25DA4368A1
:101A700009939DF83330032B15D0FF2CDDF834800B
:101A800007D0594640460EF08FF90A9B4B449842C6
:101A90002ED80E9BDDF824909DF833400893C34662
:101AA000D6F80080A1E7002010F034FE0028E4D032
:101AB00090F93730002BE0DA97E790F83B00C0F35D
:101AC000C00100F0070015F019FC2F4A2F4B00F25F
:101AD00065400721E0FB0231184625A3D3E9002326
:101AE000FEF778FF20F07F430993C2E7FF2C2FD049
:101AF00027480721A9FB000301FB09311EA3D3E9F5
:101B00000023FEF767FF044600B13E34089B214ADC
:101B1000A3F57423A3F5107393421ED81C48072124
:101B2000ABFB000301FB0B3113A3D3E90023FEF74A
:101B300051FF089A184BA3FB022304EB93440B9B21
:101B4000044400201C6011B0BDE8F08F00DE6CE79B
:101B50006FF0090011B0BDE8F08F089B03F1E87346
:101B600003F5D43303F5A5730BF1FF3B0893D5E7D9
:101B70008D49FD1A0700000000CA9A3B00000000D2
:101B8000316901003569010000CA9A3B8C49FD1A90
:101B90008D49FD1ABFBDF07F83DE1B4300000000AE
:101BA0002DE9F043C668476873683D491A68D0F864
:101BB0000090A7F57423A3F510738B4283B0804681
:101BC00007D907F1E87707F5D43709F1FF3907F5A9
:101BD000A57773685168DD8ACDF8049006F110038B
:101BE00001AA0220FFF7ECFE00284ED10199A1EBDB
:101BF00009031B0237D4084649460EF0D5F80346C0
:101C000028480721A3FB000201FB032122A3D3E9FB
:101C10000023FEF7DFFE34690444002C346109DB45
:101C200040F2E24305FB03F3A3422FD2E41AA3429E
:101C3000FCD33461D8F800301A48A3EB0903A3FBA6
:101C40000002072101FB032113A3D3E90023FEF7C0
:101C5000C1FE154BA3FB0737A0EB97402044306132
:101C600003B0BDE8F08348460EF09EF803460D48E9
:101C70000721A3FB000201FB032107A3D3E90023F3
:101C8000FEF7A8FE3469241AC7E73469002CD1D1C5
:101C900003B0BDE8F08300BF00CA9A3B000000001B
:101CA000BFBDF07F8D49FD1A83DE1B43000000009D
:101CB0002DE9F04F8DB0484E484D82460EF072F837
:101CC000F16807460EF070F87168F76040A3D3E939
:101CD00000230446A1FB0501FEF77CFE20F07F43B4
:101CE0009C4257D30DF12F010DF12E000EF05AFD3D
:101CF000DFF8E8803568A5FB085935A3D3E9002350
:101D000028464946FEF766FECDF818A004467068DE
:101D1000334B0593A0FB08012DA3D3E900234FF01B
:101D20000008CDE90788FEF755FE2E4BCDF80C8054
:101D300024F07F44A4FB033120F07F40072202FB04
:101D400004110490E81A69EB01014FF47A72002340
:101D5000FEF740FE9DF82FB09DF82EA0CDF8008034
:101D6000CDE901403B465A46504603210DF0FEFEA8
:101D700010F0FD0404D06FF08B000DB0BDE8F08FC3
:101D800019481A4A002327F04BFE90B930690DB06C
:101D9000BDE8F08F30680EA3D3E90023A0FB050156
:101DA000FEF718FE20F07F4138460DF0FDFF074694
:101DB00098E79DF82F209DF82E00009423460321DC
:101DC0000DF038FF6FF07300D7E700BFAFF300806E
:101DD0008D49FD1A070000000024002000CA9A3B2C
:101DE000116C01008D49FD1A7CB10020447B0B0071
:101DF00038B50F4D04460DF0D5FFA9680DF0D4FF9E
:101E0000696803460B48B3FBF4F4A1FB00011C44D2
:101E100005A3D3E90023FEF7DDFD20F07F408442D7
:101E200094BF0020012038BD8D49FD1A0700000035
:101E30000024002000CA9A3B2DE9F041C46894F9BF
:101E40002830002B8CB0C0F2A880636805460E468F
:101E5000002B40F0978094F8283023F0010384F899
:101E6000283016F00DFB002016F02EFB002108464E
:101E700016F01CFB08200022252116F083FB012010
:101E80000EF054FD002800F08F801C3016F0A4FBEB
:101E90005F4B0B930BA816F061FB5E4940F25B6051
:101EA00016F010FC94F82800C0F34100253015F01E
:101EB000F1F95948214616F0B7FA94F828309B06F4
:101EC00002D46368002B5AD0962016F029FD002317
:101ED0001A461946184616F05BFCD4F800802F68A5
:101EE000404615F0C5F907446A6807F1090100206A
:101EF00016F022FD16F0F6FD16F0BAFC204610F0A2
:101F0000A9FA811CC9B240463A4615F0B3F9804699
:101F100000284FD10EB9636BD3B963687BB12B68CE
:101F2000A3616B68E3613D4B646204F11801996041
:101F30000122022100200CF023FD002838D1204688
:101F400015F064F9002831D100200CB0BDE8F08113
:101F5000334A0792334A059240F2F31200930892F3
:101F6000CDE90366CDE9016606943B463146012280
:101F70000DF0FCFD10F0FD0FCFD000DECDE716F028
:101F800067FCAAE7636893F82A30D90705D4636829
:101F900093F82A309A077FF55EAF2348214616F062
:101FA00043FA16F03BFBCFE700DE6EE700DECBE73F
:101FB00000DEC4E71D4A1E491E4840F2E5133BF00F
:101FC0005CFF1D4B0721A8FB030301FB08310EA397
:101FD000D3E90023FEF7FEFC1849024618483BF0FF
:101FE0004CFF002585F31188BFF36F8F032318463C
:101FF00002DF1448214616F017FA16F00FFB6FF0B7
:102000008B00A2E7AFF3008000CA9A3B00000000FB
:10201000D6BE898E55555500E9200000B80600202F
:10202000A1760100A9760100B1730100C49A0500F0
:10203000109B0500289A05008D49FD1A649C050037
:10204000149B05003577010038B5044615F040FBB8
:1020500094F8283094F82820C3F34103013303F0A7
:102060000303032B08BF002363F3420214BF03F1F1
:102070002500252084F8282015F00CF963680BB1A1
:1020800023694BB90DF08EFEC11C002016F0C8FC70
:10209000BDE8384016F026BD16F0F0FC05460DF000
:1020A00081FEC11C002016F0BBFC16F01BFD16F0D3
:1020B000E5FC29460DF078FE094A03460721A0FBFE
:1020C000020201FB032104A3D3E90023FEF782FCF3
:1020D00023691B1A236138BD00CA9A3B0000000027
:1020E0008D49FD1A000000002DE9F0478AB0044632
:1020F00016F0D4FAC0B2002800F0E18016F0EEFA33
:10210000054616F0EDFB074616F0F4FB16F0CAFB89
:10211000EDB2064616F0AAFB15F006F945B9B0482F
:10212000214616F081F90AB0BDE8F04716F076BAFC
:1021300001200EF0FBFB8046002800F0D88194F8C7
:1021400028502B07C5F3C10AC5F3C00100F1BA80BE
:10215000F7B2626898F81C6006F00F03002A00F0DE
:10216000CA80626892F82A20900700F1C480072B89
:10217000D5D0002900F0AB80002B40F0BA8198F850
:102180001D30063B1F2BCAD804200EF0CFFB0028C1
:10219000C5D016F0AFFC636B054643B9238E40F201
:1021A000712202FB03F3B0FBF3F203FB120522687A
:1021B0008C4B52680721A2FB030301FB023186A36B
:1021C000D3E90023FEF706FC6FF4427283181F3B2D
:1021D0004FF0000242F1FF32AB4272F100029ED397
:1021E00016F036FB94F82860636816F085FA08F15B
:1021F0001E03019309AB0493C6F3801604F12A036E
:102200000296039398F81C30C3F3801301460546E9
:10221000002200932046012315F08AFB284616F081
:10222000E1F916F031FA002840F0A88121466E4805
:1022300016F0FAF8626892F82A3043F0010382F847
:102240002A3094F8283043F0800384F828300EF0C8
:1022500087FB172303714FF6FF73C38098F81C2088
:102260000646C2F340112B4600F11C0205F1200086
:10227000D3F800C05F689D68D3F80CE0C2F80CE0AA
:1022800010338342C2F800C05760956002F110021B
:10229000EED11B681360337FB46061F3451333776D
:1022A00016F0ECFB099BC6E904030EF059FBF06045
:1022B000306831460AB0BDE8F0470EF07BBB15F040
:1022C00033F82CE7FFB2002F3FF429AF40E794F832
:1022D0002920C6F3801102F0010291420BD106229F
:1022E00008F11E0104F10800079356F0E2F8079B7D
:1022F00000283FF441AF002B7AD198F81D20063A10
:102300001F2A3FF60CAF05F02102202A40F0CA80B8
:102310006268002A6ED19620079216F001FB079A98
:10232000104616F0EDF903200EF000FB05460028DC
:102330003FF4F5AE0EF014FB4FF6FF73EB80052370
:102340002B71002F40F016817F226B7E2A7623F0BE
:1023500001036B76294628680EF02CFB16F0CCF9A9
:102360000278032161F30302027098F81C200178BF
:10237000C2F3801262F3C7110C220170427094F80C
:102380002820C9B2C2F3801262F38611024602F815
:10239000021BD4F82A10C0F80210E18D9180D8F801
:1023A0001E208260B8F82220828116F01BF916F0F8
:1023B0006BF9002840F0E48016F094FB94F8283084
:1023C0000A4843F00103214684F828300AB0BDE8EA
:1023D000F04716F029B800BF00CA9A3B0000000081
:1023E0004D7701008D49FD1A4578010061770100A4
:1023F000062B82D0062B3FF692AE4FF0450929FA04
:1024000003F919F0010947D1012B52D0042B7FF4B5
:1024100086AE98F81D30063B1F2B3FF680AEEB07CB
:102420007FF57DAE16F068F998F81C600278C6F367
:102430008013B3EBD21F7FF472AE0830062208F18E
:102440001E0156F036F800287FF469AE98F81D306A
:10245000002B3FF464AE636823B106F00F06072E2D
:102460007FF45DAE03200EF061FA054600283FF4CC
:1024700056AE0EF075FA4FF6FF73EB8005232B7105
:102480009FB97F206B7E287669F3000328686B76FE
:1024900029460EF08FFA42E698F81D30063B1F2BB6
:1024A0003FF63DAE4FF00009D5E716F0EBF9C0B2AC
:1024B000E8E798F81D300C2B7FF431AEC5F380159A
:1024C000B5EBD61F4FEAD61936D0BAF1010F7FF619
:1024D00026AEB9F1000F3FF422AE98F8293003F090
:1024E000C003402B7FF41BAE4FF00109B3E700DEC1
:1024F00025E6012B7FF47CAF98F81D300C2B7FF480
:102500000EAEC5F38013B3EBD61F4FEAD61926D013
:10251000BAF1010F1AD9B9F1000F06D098F8293095
:1025200003F0C003402B3FF42FAEC5F38015B5EB8D
:10253000D61F4FEAD619CCD1062208F1240104F1A6
:102540002A0055F0B6FF0028ACD0BEE7C5F38015D1
:10255000B5EBD61F4FEAD6197FF4E1ADECE70622C2
:1025600008F1240104F12A0055F0A3FF00283FF4EC
:102570000BAECDE716F086F9C2B2E6E600DE55E610
:1025800000DE19E700000000F0B5C468A28A4FF62B
:10259000FF739A4285B000F0AD80054615F0A2FAAF
:1025A0002B89628B208C94F82710A3831A4492B253
:1025B000104480B2431C23840023638301F03F0353
:1025C0004906E28366D494F82810009304F12900A8
:1025D00004F1220314F0E8F90646204603A915F099
:1025E000B9FB039B94F846101A7861F3C3021A7082
:1025F000039A94F846301178C3F3400363F38201E1
:10260000117015F03DFF002015F05EFF201D15F044
:10261000A5FF2389A17A40F25B6043EA014116F0ED
:1026200051F8304614F036FE0399204615F068FB49
:102630002146374815F0F8FEE08916F071F994F854
:102640002C0000F0070016F05BF827682E6838466B
:1026500014F00EFE064406F109016A68012016F026
:102660006BF916F03FFAA18A03313246C9B23846F7
:1026700014F000FE0646A0B1AB7A13F0020518D0A4
:1026800000252448214615F0CFFE15F0C7FF284647
:1026900005B0F0BD218D04F1220214F0C7F9064601
:1026A0009BE7204614F0B2FD58BB0025284605B034
:1026B000F0BD194A19491A484FF480733BF0DDFB0D
:1026C00018480721A6FB000301FB06310EA3D3E93E
:1026D0000023FEF77FF91449024614483BF0CDFB76
:1026E00085F31188BFF36F8F0323184602DF6FF065
:1026F0008B05C6E70E48214615F096FE15F08EFFB5
:10270000D3E700DED1E700BF00CA9A3B000000001B
:102710005D7C010091730100409B0500109B05004A
:10272000289A05008D49FD1A789C0500149B050028
:10273000B1730100F8B5054616460C4659B93B4A37
:102740003B4802213AF0B4FF14222146304655F0AE
:1027500098FE0020F8BD374910683DF081FE28BB87
:10276000238A354A324803213AF0A0FF334B344ADA
:1027700003F11001104653F8046B42F8046B8B42CE
:10278000F9D11B781370238A2E49013308600B811D
:10279000284603230B740BF049F903460028D8D0D0
:1027A000294A234801213AF081FFD2E730682349C2
:1027B000264E3DF055FE238AC0B9254A1C48032108
:1027C0003AF074FF20463FF03AFA1E49214B0B6065
:1027D000238A308102330B81284604230B740BF0CB
:1027E00025F903460028B4D01B4ADAE71B4A1048F3
:1027F00003213AF05BFF1A4B33600127238A738170
:1028000031462846B7810BF0CDFD034620B110F1CB
:10281000780F01D0134AC4E7134A054803213AF060
:1028200047FF124B01221A7093E700BF22AD05004B
:10283000B88D050033EE050067AD050022EE0500FA
:10284000F9CD0020FC9F002090AD0500E49F002002
:10285000C2AD0500740C0020F2AD050024AE0500E9
:10286000ED2A00004AAE050080AE05000ACE002029
:10287000024A034803213AF01BBF00BFA6AE050081
:10288000B88D05001FB50B4A0B493023CDE9012354
:1028900001A80023039307F0DBFD034638B1074A84
:1028A000074801213AF002FF05B05DF804FBFFF78D
:1028B000DFFFF9E701006000252C0000FDAE0500F8
:1028C000B88D050070B5447814F00F0486B0054645
:1028D0000E4610D00F4A1048022106B0BDE87040E5
:1028E0003AF0E6BE69681022214401A83DF0E5FDFA
:1028F00028B91034E4B26B78A342F3D807E0074953
:1029000001A83DF0ADFD0028F3D10123337006B0DE
:1029100070BD00BF18AF0500B88D050033EE05008F
:1029200010B50446034A044803213AF0C1FE0020D2
:10293000208110BD42AF0500B88D05002DE9F041A2
:1029400000AF25F027FC804649F038FF6D4604466D
:1029500049F039FF88B06A461F4B4FF40076CDE945
:1029600005301E4BADF81C601D4842F8103F4FF477
:10297000E6513AF0BBFE012CAD4626D0A31EDBB2D9
:10298000022B27D8404649F020FFDFF85880C8F8CE
:102990000000204649F017FF8AB0D8F800306A4698
:1029A00011490793114BADF82060CDE9051042F8AD
:1029B000103F0B484FF413513AF098FE0123AD46F7
:1029C0000B4A1370BD46BDE8F0810A4A0448022153
:1029D0003AF06EFE0023F3E76DAF0500030000013F
:1029E000B88D0500E09F002085AF050004000001C0
:1029F000F8CD0020C6AF05002DE9F04F092983B0BE
:102A0000034602AF164618D06C468AB002AA2B4B7A
:102A1000D161C2E90536092313624FF40073938430
:102A2000274B42F8103F27484FF432513AF05EFEF0
:102A3000A5460437BD46BDE8F08FB3F8029093F881
:102A400008A0D3F80480204BB0F9000083F800A060
:102A50001E4B1F4A18801F4BA3F800901E4BC3F853
:102A60000080136801331360FDF7C0FD1B49FDF7BB
:102A7000C5FEFDF7A9FCCDE9009802460B460446C9
:102A80000D46174851463BF0EBF9EB468EB002AAD3
:102A9000144BC2F81CA0C2E905364FF4007313862C
:102AA000114B0848C2E90845C2E90A9844F2C041FE
:102AB00042F8103F3AF01AFEDD46BAE7FCAF0500D7
:102AC00005000001B88D05000BCE0020D2CD0020FE
:102AD00018A00020D0CD002014A000200000C84283
:102AE00038B0050078B005000800000110B50846B0
:102AF000144619461AB9FFF713FF204610BD2046A9
:102B0000024AFFF779FF0120F8E700BFB2B00500E5
:102B1000F0B591B0044600AF0D46F9B10146384614
:102B200008F088FB6C468AB06A46304B0795CDE9C1
:102B300005372F4B08932F4B09932F4B42F8103F2B
:102B40002E484FF441513AF0D1FD2D48A5463DF0B5
:102B500013FFFFF797FE4437BD46F0BD284B1B68B7
:102B60008342F8D107F120050146284608F062FBB0
:102B70006E4688B06A46234B2048CDE905354FF4B0
:102B80000073ADF81C30204B42F8103F4FF4E65173
:102B90003AF0ACFD1D4B1E4AB54603F1100011463C
:102BA00053F8045B42F8045B8342F9D11B7813703D
:102BB000184A194B53604FF6FF731160D3810125FA
:102BC000002311462046137415810AF02FFF034697
:102BD00028B1124A094829463AF068FDBBE7104A75
:102BE000064803213AF064FDB5E700BFB6B0050022
:102BF00092BB05000002020405000002B88D05002A
:102C000010A00020DEB005000300000133EE050037
:102C1000F9CD0020FC9F002035270000ECB0050016
:102C200014B105002DE9F0411E4698B03F4B1B68DA
:102C30000C4600AF05461146002B54D1002A52D154
:102C4000212207F13C0055F01CFC394907F13C02F8
:102C5000304605F099FA97F83C30002B43D007F145
:102C60001C082946404605F07BF997F83D30002BBB
:102C70003DD007F13D036E468AB06A462D492E4885
:102C8000CDE907432D4B09932D4BCDE9051842F8AB
:102C9000103F4FF443513AF029FD97F83D30B546C7
:102CA000C3B1284C07F13D0821464046FDF7ACFE74
:102CB00080B18AB06A46244B0794CDE90538234B8E
:102CC0000893234B42F8103F1B484FF422513AF02F
:102CD0000DFDB54607F00CFC034650B11D4A1648E1
:102CE00001213AF0E3FC6037BD46BDE8F0811A4BA4
:102CF000C1E71A4B0FCB07F10C0484E80F00184A08
:102D00004FF0C873C7E901232146084B3A1D2846F6
:102D100008F0EAFA03460028E5D0124A06480121E5
:102D20003AF0C4FCFFF7AEFDDDE700BF10A00020C5
:102D3000B5D6030041B10500B88D050000020204BC
:102D40000500000283B105008FB1050000020103F8
:102D500004000002E6B1050094D50500C08F05000F
:102D60001800280003B20500F0B589B000AF0C468A
:102D70000146384608F05EFA6E468AB06A46104B45
:102D80000794CDE905370F4B08930F4B09930F4B71
:102D900042F8103F4FF443510D483AF0A7FC0D485C
:102DA000B5463DF0E9FD0C4B0C4800211822197086
:102DB00055F067FBFFF766FD2437BD46F0BD00BF49
:102DC00027B2050092BB05000002020405000002C4
:102DD000B88D050010A000200ACE0020E49F00203E
:102DE000034B1B68834201D1FFF7BEBF704700BF92
:102DF00010A0002013B50A4B187870B109488368F9
:102E000004695B6801A9984720B923680198584074
:102E1000C0F3C020431E5842584102B010BD00BF4D
:102E20000CCE0020088A050080B5724C88B002AF35
:102E30002378002B6BD0704C4FF0140842460021D1
:102E4000381DD4F8009055F01CFB6C4D3A1D2946F6
:102E500002203FF007F9012806465ED06E4688B092
:102E600002AA674B6748C2E905354FF400739383A4
:102E7000654B42F8103F4FF4E2513AF037FC6FF0E7
:102E80001503B546614A5F4801213AF00FFC25F071
:102E900081F949F0A1FB00260546B046002D40F01F
:102EA00097805B4B5B4AC3F800805B4B1E705B4BAB
:102EB0006D468AB0002E18BF134602AA5849D36146
:102EC00040F201331384574B4E48C2E9051842F8CB
:102ED000103F4FF413513AF009FCAD46524A4948AD
:102EE000524D03213AF0E4FB20680023391DCDE95F
:102EF0000033092216F04EF8011E76DA02F0EAFEDF
:102F00002B584B4A3F4802213AF0D0FBECE741F600
:102F10009A1000213AF005FC8AE700237B61292101
:102F2000CDF800803B1D4246484616F069F800B3D4
:102F300002F0D0FEDFF8F480E9468AB050F808309D
:102F4000064602AA3B49D3614FF400731384354B04
:102F50002C48C2E9051542F8103F4FF411513AF0E0
:102F6000C5FB56F80830CD4683BB334B01221A709F
:102F70008DE717F0D3FA39463860381D40F0F5F880
:102F8000014638B92D4A1F4831463AF091FB6FF09F
:102F9000010377E7037F9B0702D4386840F0F9F814
:102FA0006E468AB002AA264B1648C2E9053541F2A0
:102FB0009203D3614FF4007313841A4B42F8103F0D
:102FC0004FF413513AF092FBB546CEE75B4259E716
:102FD00028461C49102255F06CFA08F101082D69A9
:102FE000002808BF46F0010658E7174A381DFFF7CA
:102FF00003FD79E7F8CD0020140300205BB2050043
:1030000066B20500B88D05000300000122B305007B
:10301000DC9F00204BB20500F6CD002053B2050026
:1030200053B30500040000018DB305000C0000003F
:10303000B3B305008DB20500F7CD0020BCB205008A
:1030400003B3050012EE0500CEB3050008B54FF03E
:10305000FF3308484FF0FF3226F0E2FC064B1B78A6
:10306000012B05D1054B1B68002B01DBFFF7DCFEB4
:1030700008BD00BFC81100200DCE002014030020A1
:1030800070B5174A07CA86B003AB83E807001E462F
:10309000002556F8044B206846F077FC50B9114AD9
:1030A00011482B4601213AF001FB6FF01204204633
:1030B00006B070BDE2882068217942F4B0123AF07F
:1030C000DAFA044638B1094A00902B460648012135
:1030D0003BF0E2FEEBE70135032DDAD1E7E700BF75
:1030E000D08F0500D5B30500B88D0500F2B30500FB
:1030F0002DE9F041FFF7C4FF0446002841D1224DDD
:10310000DFF888802B78002B33D1214B214E1F789C
:10311000214800213AF0F2FA28781E4B002188421B
:1031200008BF434618463AF0E9FA37B30121304662
:103130003AF0E4FA2B78012B15D125F031F825F07F
:1031400029F8074649F0B6FA0646384649F055FBD5
:10315000124B726C1A60124B42681A60114BC268B3
:103160001A6025F027F843F2343000213AF0D9FAFA
:10317000C8E70D4B46461F78CAE784F00104214694
:10318000D5E7BDE8F08100BF0DCE0020B09205006C
:103190000ACE0020A8920500B8920500D89F002012
:1031A000D49F0020D09F0020F8CD00202DE9F047CB
:1031B00088B002AFFFF764FFB14846F0E6FB002895
:1031C0004BD1B04AB04801213AF072FAAF4DB04845
:1031D000A86246F0DAFB00284BD1AE4AAA4801218A
:1031E0003AF066FA6FF01204AB4AA7482346012171
:1031F0003AF05CFA0024A94B1C7000233B60A848FD
:1032000046F0C3FB002840F03781A64BA64D6E4622
:1032100088B0002C18BF1D4602AAA44B9A48C2E9E8
:1032200005354FF400739383A14B42F8103F4FF4E0
:10323000E6513AF05BFAB546002C40F06881204632
:1032400006F0BAFA0446002800F05681994A03466F
:103250008D4801213AF02AFA8AE1974A88480B21E1
:103260003AF009FA08B1954AACE7954B01221A7079
:10327000ACE74FF47821A86A29603A4644F0DBFBBA
:10328000044630B18F4A034601217F483AF00EFAD6
:10329000AAE77B68EB60284602232B8200F0EAFD58
:1032A00004460028A0D101233A46194628463BF09F
:1032B00035FD012802D13C78012C0CD9824A724894
:1032C00003213AF0F5F90123002470483C703A4696
:1032D000194600F079FFFFF78DFD00288BD084F0B0
:1032E0000108002C54D1704B6E4D6E468AB002AA74
:1032F0007649D561C2E90513754B1362754B42F8E7
:10330000103F61484FF423513AF0F0F9B546002CD4
:1033100041D0714EDFF8C491714826F04DFF7148DD
:1033200000213AF0EBF96C4800213AF0E7F96B48DC
:1033300000213AF0E3F94FF0040A012130463AF057
:10334000DDF9002141F69A103AF0EBF9FFF752FD52
:10335000014620BB30463AF0D1F9614826F04CFFD7
:10336000514A504B6D4688B0002C08BF134602AA44
:103370005D49C2E905134FF4007393834C4B42F847
:10338000103F4FF4E65140483AF0B0F9AD4632E70D
:10339000444B454DA9E7514EDFF83C91BCE7002175
:1033A00030463AF0ABF941F69A1000213AF0B9F9FB
:1033B000FFF720FD0028D0D0BAF1010ABDD1FFF7F8
:1033C00019FDF0B90123314887F800803A461946C3
:1033D00000F0FAFE002827DA334A324B6D468AB0F5
:1033E000002C08BF134602AA4049D36140F20133C2
:1033F00013843F4BC2E9051042F8103F4FF41151BE
:10340000C1E7484601213AF079F941F69A100021C6
:103410003AF087F9484600213AF070F941F69A10DF
:1034200000213AF07EF9CAE76C4688B002AA314B17
:103430001548C2E905354FF4007393831C4B42F8DD
:10344000103F4FF4E6513AF051F90120A54600F043
:10345000A9FBB3689B6C1BB13A46042130469847E0
:1034600040F6CD4000213AF05CF93B68002B7FF438
:10347000CCAE013DEDD1C8E6094E1F25F5E700BFF2
:10348000088A05002DB40500B88D05001CA0002099
:10349000E88A05009CB4050003B505000DCE0020A8
:1034A000248A05001DB4050081B505003CB6050061
:1034B000030000014AB605001100010060B40500D8
:1034C0000CCE0020C5B4050054B505008EB505002E
:1034D0000002010304000002B0920500A89205005A
:1034E00048150020B892050014B60500BCB50500CB
:1034F00004000001EFB50500474A484803213AF0AF
:10350000D7F8FFF7BFF9464826F04EFA43E08AB0F5
:1035100002AA444B53614FF6ED610F23C2E9061333
:10352000414B136240F202439384404B42F8103FF8
:103530003A484FF433513AF0D9F8B54602211122F6
:10354000084615F0C9FCDFF8E88000280446C8F8F2
:10355000000025DA02F0BEFB364E04468359364A97
:103560002E4801213AF0A2F8A4596442002CCAD096
:103570006E468AB002AA314BD461C2E905354FF4D8
:10358000007313842E4B42F8103F24484FF411511E
:103590003AF0ACF8B54600201837BD46BDE8F087D4
:1035A00000237B61274B0FCB3E1D86E80F00264B87
:1035B0003B6018223946204615F0C0FCA8B102F045
:1035C00089FB1C4E04468359204A0093134841F25C
:1035D000920301213BF060FCD8F800003EF040FD72
:1035E0004FF0FF33C8F80030BEE7194A0B4841F2EC
:1035F000920303213AF05AF8164824F0F7FD24F01C
:1036000061FE044610B1144A034621E6134A0348FA
:1036100003213AF04DF876E769B60500B88D05004C
:10362000C81100207FB60500BEB6050005000001E8
:10363000140300200C000000C8B60500D0B7050038
:1036400004000001CC9C050002001092EFB60500BA
:103650001FB705000803002069B70500A5B70500DE
:103660002DE9F84F8A4600AF002974D004680E1F78
:10367000361BF50826F0070604EB0608B8F802B07A
:103680001BF0010B16D1E94688B06A46334BCDE9F1
:103690000531032342F8103F31485B464FF4C251D5
:1036A00001F076F9CD468BF31188BFF36F8F0423B9
:1036B000184602DF294620463AF035F8284434F807
:1036C0003030C01A854217D0E94688B06A46254B8B
:1036D000CDE9053A032342F8103F214800234FF477
:1036E000C25101F055F90023CD4683F31188BFF391
:1036F0006F8F0423184602DFB8F8023023F001036D
:10370000A8F80230294620463AF00DF805EB0008EB
:1037100004EBC8035B88DA0708D4414620463AF038
:103720004BF84246294620463AF08BF8A65BAE1B82
:1037300004EBC6035B88DB0709D4314620463AF028
:103740003BF82A46314620463AF07BF83546294672
:10375000204639F0EDFFBD46BDE8F88F64B805009E
:10376000B08E05003BB8050008B502483AF078FB7A
:10377000002008BD91B805000E4A9042034602D3CE
:103780000D4A904211D30D4A22B1934202D30C4A02
:1037900093420AD30B4A52B10B48834234BF0120F3
:1037A0000020934238BF0020704701207047104628
:1037B000704700BFC8880500F0F205000000000057
:1037C0000000000000000000000000002DE9F04FA4
:1037D0009BB000AF0446D7F890A0FA637B638B469A
:1037E00049B903784678807800EB830020445E4531
:1037F00022D8A0EB040B0AF0010394F80280FB62CC
:10380000E3783B63B8F1000F0CBF4FF000090AF0FA
:10381000010913B11AF0020F17D1B9F1000F14D139
:10382000FB6B1BB17A6B5946204698475D4628468C
:103830006C37BD46BDE8F08F451C2846FDF7F6F80D
:10384000013028440BF1010BD1E7CAF3C003FB613F
:103850002378BB629B00BB6163683B62BB6A04EB7D
:103860008301FB6B002B7DD15D468844B9F1000FCD
:103870001DD0A94E8B4699461BF8013B54F82300F6
:10388000002808BF3046FDF7D1F8D7F89430013052
:103890004BB1D7F898304B4582BFD7F8943023F816
:1038A000190009F10109C3450544E5D1D8461AF0CC
:1038B000050F0AF002030CBF4FF0020B4FF0010B93
:1038C0000026FB633B6B9E42B1D298F8013054F85E
:1038D00023A05046FFF750FFFA6908F1020803469B
:1038E00002B3B86318F8021C386A3AF098FABB6B56
:1038F000C0B1EA468AB06A46884B05933B6ACDE977
:1039000006314FF40073ADF82030854B42F8103F7C
:10391000844800234FF4125101F03AF8023DD54695
:103920000136CFE723B1FB6A2BB9A5EB0B05F7E70F
:10393000FB6B002BF4D07848BAF1000F18BF50464B
:10394000FDF774F8D7F8943053B1D7F8983099450B
:103950003FBFD7F89420431C22F8193009F1010920
:103960000544DDE7B9F1000F6CD04346102B28BFAA
:103970001023BB6397F8389007F148000026BA6B14
:10398000796254F057FD796A00227A620AF00202E5
:1039900001EB08033A610AF004027B61FA6002332A
:1039A0007A6A396B8A4266D36378F96A7B621AF065
:1039B000020F4B44DBB20CBF72080022002940F01A
:1039C000A9801AF0040F14BF314600216370A17062
:1039D000E270B9697A6BFB6B20469847051EFFF6CB
:1039E00026AFBB6A23707B6A63703B6BE370314622
:1039F0007A6BFB6B84F8028007F158009847061E2B
:103A0000C0F2C4803A6BBB69386B03EB4203ABEB8B
:103A10000301D7E90D23C91A7B6903EB4000FB6B57
:103A200098470028C0F2B4802E4435184FF00008A3
:103A300007F1480AC84577D300217A6BFB6B08462B
:103A40009847F4E6B8F1000F0CD01AF0040F0ED02E
:103A50004346102B28BF1023BB6397F8386007F14B
:103A600058008CE7C7F838804646C1468CE7C7F84F
:103A700038804E4688E713F8015C13F8021C54F8AE
:103A80002500BB60FFF778FE0246F869BB6838B1D5
:103A9000386AC7E901323AF0C2F9D7E90132F0B920
:103AA00012B3FA6A72B1B9F10F0F18D809F12801EF
:103AB00007F14000014409F1010201F8205C5FFABE
:103AC00082F90CE0FA6852B10F2E08D806F12801ED
:103AD00007F14000721C0E1806F8105CD6B27A6A24
:103AE00001327A6202335BE73A69002ADBD10F2E9A
:103AF000F5D806F1280007F1400C6044721C00F86C
:103B0000101C07F1680151FA82F20236F6B202F88F
:103B1000105CE4E7002159E7CDB80500D4B80500F2
:103B200004000001308E050018F80A3087F847308D
:103B300054F823B0D7F8943033B3D7F89830984579
:103B400022D2D7F8943033F818607A6BFB6B0121DE
:103B500007F14700984700281ADB0E4B0544BBF1DC
:103B6000000F08BF9B4626B95846FCF75FFF461C6E
:103B7000B6B27A6BFB6B314658469847002807DB94
:103B8000054408F1010855E70026DEE735464EE614
:103B900005464CE6CDB80500014B1860704700BFE4
:103BA0001803002008B50446EFF31183202383F3A4
:103BB0001288BFF36F8F1FF093FA204602F08EFC3D
:103BC00002483AF04DF93BF0C5FBFCE788B9050027
:103BD0002DE9F047858B0446280717460CD50129A7
:103BE0000CBF45F0100545F02005A58387F311882B
:103BF000BFF36F8FBDE8F087022905F0070540F09D
:103C0000948020463AF0CCFB052864D801A353F8F1
:103C100020F000BFED3B00002B3D0000D73C000032
:103C2000993C0000B33C0000C53C000001F00703D4
:103C30005A1F012A1FD8002221F00701062BD4F8B1
:103C4000008089B2C4E9002209D1434603E0E28B37
:103C50000132E2831B68002BF9D141F00201A183FC
:103C600020463AF09DFB4FF0000900286DD041F04E
:103C70002001A18369E0042B0AD121F0070189B258
:103C8000A18320463AF08CFB10B141F02001A183C2
:103C90004FF00008C14658E02369D3F80090A38B89
:103CA00023F0070343F00603A3834FF000084646C2
:103CB0004BE02369D3F80490A38B23F0070343F070
:103CC0000403F1E72369D3F80890A38B23F00703DB
:103CD00043F00503E8E74FF00008C146E7E701229B
:103CE00043F00803A38387F31188BFF36F8F002A83
:103CF0003BD1B8F1000F4AD1B9F1000F02D02D49E4
:103D00002046C847EFF31187202383F31288BFF3BF
:103D10006F8FA38B23F008039BB2A383D9063FD5F3
:103D200023F01002A28303F00705A669A18B002EE1
:103D3000BFF67CAF0023D4F8008021F00701C4E96E
:103D4000003341F00101A1839946A38B03F0070AD8
:103D5000AA4502D0A268002AC1D1B8F1000F02D151
:103D6000B9F1000FDAD00022BAE7A1680029C0D06B
:103D70000D680029BDD04F68334652462046B847EB
:103D80001DB12B6829461D46F3E72B46FAE741464D
:103D9000334652462046D8F800803AF02DFBA8E77B
:103DA0009A067FF523AF23F02002A28303F00705D4
:103DB00027E700BF25E4030037B504460821C06AA1
:103DC000124D3AF0A7FD00234FF6FF72ADF8043014
:103DD0006368ADF800208DF80620E26819182B40C2
:103DE0001344181A60606846ADF802103AF0EAFC15
:103DF000694620463AF0ADFD211D20463AF0BAFC56
:103E000063682B40A36003B030BD00BF0000FFFF1C
:103E10002DE9F7430F4681460821C06A144D3AF058
:103E200079FD3C68241A80463C6004EA0506B442E9
:103E30001CD3A0B210B903B0BDE8F08308236A46D2
:103E4000214648463AF05DFC0028F4D16946A0B20C
:103E50003AF04CFD38B1BDF80230BDF804203C60AA
:103E60002E4013441E44A4EB0804E0E70020E2E7E0
:103E70000000FFFF2DE9F04704468AB000F1140767
:103E8000384645F07EFEA06A8368DB689847E062AA
:103E900050B99F4A9F4801213AF079FC6FF015050F
:103EA00028460AB0BDE8F087A06A8368DB689847B7
:103EB0000368013B1F2B01D9974AEBE7E368B3F591
:103EC000803F08D94FF4803200929248934A0121F2
:103ED0003AF0E2FFE2E7A06A216807AA43F0ABFDEF
:103EE00008B18F4AD6E7E5682DB1089BB5FBF3F220
:103EF00003FB12550DB18B4ACCE7238A012B01D865
:103F0000894AC7E7E36A029593F805804FF0FF33CB
:103F10004FF0FF32384625F051FCE06A08213AF0B4
:103F2000F9FCA9460646238A1FFA85FA534544D868
:103F3000238A4B4500F02D8153450BD1029908236C
:103F40004246891B20463AF0EAFB18B902A92046EE
:103F50003AF010FC02A92046FFF75AFF0546002858
:103F600040F0B280029961604FEA11494FEA094975
:103F7000C4F80890A3688B420DD8082303AA2046F2
:103F80003AF0BFFBB8B903AB13F8012B904532D11F
:103F900001300828F8D1636802A96FF30F032046A7
:103FA00002933AF0E7FBE3680299424620463AF072
:103FB000B6FB00283CDA054686E0E1682B04891B45
:103FC00013FA81F142460823204602913AF0A7FBFA
:103FD00078B102A920463AF0CDFB09F10109029916
:103FE0000823424620461FFA89F93AF098FB002838
:103FF0009ED0013597E7A08803A93AF077FC626864
:1040000010B9911B6160B5E7BDF810A0BDF80E10A6
:10401000E06AC4F8089051443AF07CFC484482427B
:10402000A060EED1BAF1000FEBD06FF01C054BE0B1
:1040300000F08B8063684FF6FF7906EB0308E368B6
:10404000CDF808801FFA88F29B1B9A4223D3374A87
:10405000304803213AF09BFB616820463AF099FB17
:10406000014680BB6368324AE06813400344A3EB17
:10407000460363601340A36020463AF00BFD00281E
:1040800099D1E368A288A3EB46039A421CD120464B
:104090003AF07CFC8FE7082305AA414620463AF017
:1040A00030FB002887D105A91FFA88F03AF01EFCE2
:1040B00038B1BDF814304B4503D1BDF81830002B92
:1040C0006AD0B044BBE70D46384625F0E9FB002D29
:1040D0007FF4E6AE0123A374E268238A0D480092C0
:1040E0000321144A3AF0D8FE63689AB20092094854
:1040F000114A1B0C03213AF0CFFEA3689AB200923A
:1041000004480E4A1B0C03213AF0C6FEC8E600BF65
:10411000D0B90500588E0500F2B905000FBA0500A8
:1041200038BA050050BA050064BA0500D6BA0500D1
:104130000000FFFF87BA05009EBA0500B0BA05006F
:10414000E26AA36812681344A360D4E901318B4288
:1041500008D95B1A424620463AF0E1FA0028FFF6F9
:104160002AAFEDD16168E36801EB46029A4288D13B
:10417000124BA06801EA0302904282D020463AF036
:1041800008FB00287FF417AF62680C4B1A40A2604E
:1041900077E76FF02C0597E7094A0A4803213AF0C0
:1041A000F6FA636802A96FF30F03204602933AF010
:1041B000E1FA029920463AF0ECFA60E70000FFFFCE
:1041C000C1BA0500588E05002DE9F04F1E46837CCC
:1041D00095B004468946904653B96B4A6B48012115
:1041E0003AF0D5FA6FF00C05284615B0BDE8F08F0F
:1041F000C26A082110463AF08DFBB1B20190104618
:104200003AF088FBE368019AA3EB820383420746F6
:10421000C0F0B6801EB1B8F1000F00F0B180D4F844
:1042200004A0CDF810A005AA04A920463AF0E8FBA6
:1042300005460028D8D1BDF814304B4507D0DDF82D
:1042400010A063685345EED1002E39D1CCE705A903
:104250001FFA8AF03AF04AFB0028F0D0BDF8183077
:1042600066B3B3422CD14FEA1A43BDF816A0CDF87D
:1042700000801B049A44E36A1B685B4203F020033E
:104280000293B346029B5B4528BF5B460CAA51468E
:10429000204603933AF035FA00284DD1039B00984D
:1042A0001A460CA954F005F950B9039B009ABBEBD0
:1042B000030B1A449A440092E4D195E7002B93D063
:1042C000002F3CD1BA4604F1140B4FF0FF324FF0EF
:1042D000FF33584625F072FA238A9D424DD0D4E927
:1042E00001320AEB02018B422ED39BB263B3FF2350
:1042F000ADF81E20002118220CA88DF82230ADF850
:104300001C90ADF8206054F0BCF80CA92046CDE913
:104310000E863AF009FB074648B907A83AF052FA68
:1043200007A920463AF015FB074600B9374658461C
:1043300025F0B6FA3D4657E7C2DC054654E7019B37
:104340001F441FFA87FABEE72046FFF735FD3DB947
:10435000ADF82490CDF82880ADF82C608DF82E5063
:1043600009A920463AF096FB07460028DFD19DF8C0
:104370002E300135002BAFD0D8E76FF01B07D6E702
:104380006FF0150530E700BFBCB90500588E050079
:104390002DE9FF471E46837CBDF8309004460F464A
:1043A00090464BB92848294A01213AF0F0F96FF0BC
:1043B0000C0004B0BDE8F087C06A08213AF0AAFA00
:1043C000E368A3EB4003B3423AD3656801954FF02D
:1043D000000A02AA01A920463AF012FB0028E8D1FF
:1043E000BDF80830BB4206D102A9A8B23AF07EFA65
:1043F00050441FFA80FA019B62689A4219D0CA455C
:1044000015D9BDF80C30C3B1CA4516D3BDF80A1092
:10441000B3426FF30F0528BF334642462944204676
:104420003AF06FF90028C4D1BDF80C00C1E71D4671
:10443000CFE7BDF80830BB42E3D06FF00100B8E72A
:104440006FF01500B5E700BF588E0500BCB9050038
:104450002DE9F047DFF85480044607464FF0010984
:1044600094FAA4F5B5FA85F509FA05F32E0108EBDF
:1044700005156FEA030A24EA03042B7B63B158F89D
:1044800006301B696BB946440422736828461968D4
:1044900007EA0A073AF07DFC002CE1D13846BDE876
:1044A000F087284698470028F6D1ECE7608F050092
:1044B00010B50F490F4888B0002245F0A8FF002230
:1044C0000023CDE9062300240E23CDE90334CDE9F2
:1044D0000144094B094900944FF44072084825F003
:1044E000CDFE0849064825F0D5FD204608B010BD90
:1044F00009450000901B002039480000F0E9002029
:10450000C816002004BB0500014825F04DBA00BFC5
:10451000801100202DE9F047804621480F463AF0EF
:1045200018FC0646002833D000252846BDE8F08751
:10453000237B83B12368DB680BB12046984763680F
:1045400083F8069023681B69D3B96368042219684D
:1045500020463AF01EFC013610345445E8D3B8F139
:10456000000FE2D0002DDFD02846FFF771FF05468F
:10457000002FF7D000214FF4A47045F08DFEF1E735
:10458000204698470028E0D009FA06F31D43E2E7E9
:10459000044CDFF814A005464FF00109DDE700BF29
:1045A0005CA00020608F0500708F0500014B53F860
:1045B00020007047D492050008B5034608462BB189
:1045C000044A136000F056FC002008BD6FF015008F
:1045D000FBE700BF1C03002010B5044C237813B97F
:1045E000034825F0E1F90123237010BD0ECE002011
:1045F0008011002010B504460B483AF0AAFB5CB1CC
:10460000BFF35B8F094B53E8001F013943E80012E9
:10461000002AF8D1BFF35B8F054826F08FFC0548D0
:10462000BDE8104025F0C0B954A0002058A00020DB
:10463000901B002080110020064BBFF35B8F0022EF
:1046400053E8000F43E800210029F9D1BFF35B8F45
:10465000704700BF54A0002070B5FFF7EDFF084C75
:10466000084E0546B44200D370BD63685B792BB138
:1046700023685B6813B12946204698471034F1E758
:10468000608F0500708F050010B5044C044920466A
:1046900039F000FD034B1C6010BD00BF780E0020F8
:1046A000C09205004CA000200D4A0E48002310B512
:1046B00013700D4A13600D4A4FF400411360FFF769
:1046C0007BFFFFF7E1FF0A4B0A4918468B4200D3F4
:1046D00010BD1A1A5C681211013222711033F5E70D
:1046E0000FCE00204FED030054A0002058A0002062
:1046F000608F0500708F05000146002201480023ED
:1047000039F0E9BC780E0020014839F080BD00BFC7
:10471000780E0020024B0146186839F0D3BD00BF67
:104720004CA00020014839F008BE00BF780E0020E0
:1047300070B52A4B1B78002B4ED0FFF7E5FF0446DF
:10474000002846D1264B274D1B68002B19DD45F06C
:1047500016FE4FF47A76A0FB063206FB0121D5E95E
:104760000020DB0B43EA41439B1A4FEAD13140F270
:10477000E93261EB0001934271F1000101D3FFF7CF
:104780006BFFD5E9003213F57A7342F10002C5E9F7
:1047900000320CB3BDE87040FFF7C4BF6B685B79B3
:1047A00023B12B6821461B68284698471035B5422F
:1047B000F4D32046FFF7AEFFBFF35B8F0A4B53E8FD
:1047C000001F013943E80012002AF8D1BFF35B8FC4
:1047D000B8E7064D064EEAE7002070BD0ECE002079
:1047E00054A00020881B002058A00020608F0500E6
:1047F000708F050070B50D4D297861B90120FFF764
:1048000089FE0B4C0B4EB44206D3FFF791FF0028F4
:10481000FBD101232B7070BD63685B791BB12368EA
:1048200020469B6898471034EDE700BF0FCE00206C
:10483000608F0500708F050000212DE9F8430846C0
:10484000FFF768FE044648B340F267684FF000097E
:1048500001F040FA1A4B1B4A1B58136033B11A4B34
:104860001B68092B02DD194825F09EF8184F00251A
:1048700044B12046FFF7ECFD044618B94FF0FF386D
:104880004FF0FF39FFF754FF064628B9B5B90F4876
:1048900042464B4625F0C4F83546E9E74FF0FF386D
:1048A0004FF0FF39D4E72B689B691BB100221146FA
:1048B000284698471035BD42F5D3E8E7054DFAE79D
:1048C0000800000050A0002058A000208011002007
:1048D000708F0500608F050013B518483AF039FA5B
:1048E000174B1B7873B1EFF31184202383F31288E5
:1048F000BFF36F8FFFF71CFF84F31188BFF36F8F37
:1049000002B010BD0F4B1B68002BF9D050B900222C
:104910000023CDE900230C484FF40042002326F089
:10492000E7FAEDE70928EBD1074826F007FB07482F
:1049300002B0BDE8104025F037B800BF58A00020F5
:104940000FCE002050A00020901B002080110020DE
:1049500010B5064B1B68044698472146A0600448E2
:1049600039F036FCBDE81040FFF7B6BF1C0300204D
:10497000780E0020044A054B9B1AB1EBD30F34BFCD
:1049800052F8310000207047B08D0500608F05009F
:104990002DE9F04F8FB004AFC1F34A26B8600D4641
:1049A00090467B600C0D002E61D04FF000090A2369
:1049B0004FF0040B07F1140AFE60C7E90799C7F826
:1049C00024900093CDF808B0CDF804A007F11C03A3
:1049D000F9684A464046FEF7F9FEB0F5006F034617
:1049E0001CD36C468AB0D8F8041004AB2448C3E941
:1049F000050140F2FF71D9611A464FF40071198424
:104A0000204B42F8103F20484B464FF41251FFF71D
:104A1000BFFFA5462C37BD46BDE8F08FC0F30A06A0
:104A200004F11700184420F0070080083B60FFF7EE
:104A300063FE66F35325044680B13B68134A00F1D8
:104A40001001C7E90839F961CDE901AB0A230093E8
:104A5000F96807F11C034046FEF7B8FE66F35325DC
:104A60007B68B9682A4620463AF0B3F9D2E704F1E8
:104A7000170020F007008008FFF73EFE0446EDE730
:104A800019BB050004000001688E0500A5ED0300B8
:104A90002DE9F04F87B0DDE9127ADDE9106B0546AC
:104AA000884614469946BFB11021CDF800A03B4678
:104AB0005A460020CDF814A038F0D8FFB0F5006FAA
:104AC00001460BD3194A1A4840F2FF73022107B07E
:104AD000BDE8F04F3AF0D6B93946384604F007033E
:104AE00005F00704E40044EA831444EA402444EA5D
:104AF000065406F11700084420F0070080080391CF
:104B0000FFF7FAFD054640B13FB10399CDF800A08B
:104B10003B465A46103038F0A9FF4B4622464146E4
:104B2000284607B0BDE8F04F3AF053B958BB05002E
:104B3000688E0500406820B1034BC01A40F3CF00D7
:104B400070474FF0FF307047B08D05000EB403B5CD
:104B500003AB014653F8042B0448019301F018FA03
:104B600002B05DF804EB03B0704700BFE7EE03004E
:104B7000CA0605D48B064CBF02490349FFF7E6BFBE
:104B8000704700BF91BB050090BB05002DE9F04FB9
:104B90008BB09946179B0793DDE918A39DF85880C1
:104BA0001A9F069204460D460593B8F1000F00F0D7
:104BB000BF80844B13F80830089307F4807309937F
:104BC0003AF0E5F807F0020B024600287DD07E4956
:104BD0002046FFF7BBFF0646BBF1000F08D017F0D9
:104BE000440F74D179492A462046FFF7AFFF0644A7
:104BF00007F0010353B1764B764953F82820764BE2
:104C00002046002A08BF1A46FFF7A0FF07F480736A
:104C1000002B07F0080318BF4FF00009002B00F02D
:104C200082806E4B6E4953F828202046FFF78EFF96
:104C30000546069B2BB16B491A462046FFF786FFB7
:104C40000544B9F1000F0DD0089B002B6ED06649CA
:104C5000664BB8F1040F18BF19464A462046FFF7C5
:104C600075FF054462483544079B1BB161492246E4
:104C700039F0A4F8059B002B00F09080DDF814902B
:104C80003946B9F1100F204628BF4FF01009FFF741
:104C90006FFF0026B54252DC002633461AF8032087
:104CA00055492046FFF752FF0136102E4DD07107AF
:104CB00003D152492046FFF749FF4E453346EDD315
:104CC0004F492046FFF742FFEEE7064684E74D4B8B
:104CD000186800288BD04C4B4FF47A7B1B68B5FBCF
:104CE000F3F54FF46163B5FBF0F100FB11550BFBDD
:104CF00005F54FF03C0CB1FBF3F203FB1211B5FBD1
:104D0000F0FEB1FBFCF300FB1E550CFB13110BFB7B
:104D100005F50091B5FBF0F53C49CDE901E52046EC
:104D2000FFF714FF63E707F0080582E72F4994E7D0
:104D3000B9F1010F0CBF2E483548454694E72F497D
:104D40002046FFF703FF0136A4E73249204600263C
:104D5000FFF7FCFE33461AF803202F49A2F1200387
:104D60005F2B28BF2E222046FFF7F0FE0136102EC3
:104D70000DD0720703D121492046FFF7E7FEB14568
:104D80003346E8D81D492046FFF7E0FEEEE7059BD5
:104D9000B3EB0903CA4405937FF470AFB8F1000F79
:104DA0000AD0FB0704D50C4A0A492046FFF7CEFE7D
:104DB00039462046FFF7DCFE20460BB0BDE8F04F39
:104DC0003AF084B86CEE0500A1BB0500A5BB050058
:104DD000E4920500F2CD050093BB0500F8920500B2
:104DE000CBBB0500D1BB050098BB05009CBB0500F3
:104DF000E7EE0300915F0000D5BB0500DDBB0500B9
:104E0000DBBB050064A0002060A00020AFBB050054
:104E10001DEF0300DFBB0500E1BB050073B542F2E7
:104E20000F738B4228BF0B4605680F4A04460521C5
:104E3000684637F0CDFA63680C495B6806460B227A
:104E400028463AF035F863683246694628465B687A
:104E50003AF02EF8636806495B681B2228463AF050
:104E600027F802B070BD00BF99C3050060EE0500D1
:104E700044EE0500074A00210123904206D8064A65
:104E800001B901231360054B1860704740085B00AF
:104E90000121F2E740420F0060A0002064A0002042
:104EA000F8B5074F0D4604464618B44201D12846CE
:104EB000F8BD14F8011BBB6801485B689847F4E72C
:104EC000248A0500014B03600020704740930500D1
:104ED00070B5104B1C680D46B4B10F4B1968002318
:104EE0008B4202DB6FF0010070BD224612F8106B9E
:104EF000864202D001331446F2E7E06844F045FDF3
:104F000028B12C600020EFE76FF00C00ECE76FF0A9
:104F10001200E9E7280300204093050010B588B08F
:104F2000436802938368C068CDE903320A680023AE
:104F3000CDE906230C4601AA0449059342F07FFD02
:104F4000079808B9059B236008B010BD17F003004F
:104F5000B0B582B03F49404802AF3AF0D9FB0446B1
:104F6000A8B16D468AB002AA3C4B53613C4BC2E9E2
:104F700006344FF4007313843A4B42F8103F3A481A
:104F800000234FF41151FFF703FDAD4632E03749DE
:104F900031483AF0BDFB044630B16D468AB002AAF2
:104FA0002E4B5361324BE2E732492B483AF0B0FBCB
:104FB000044630B16D468AB002AA284B53612E4B8D
:104FC000D5E72E4924483AF0A3FB044630B16D469C
:104FD0008AB002AA214B5361294BC8E70146294AEE
:104FE0001D4802F08FFC044638B1274A1E480121B3
:104FF00039F03FFF2046BD46B0BD02462349164862
:10500000012302F075FD044608B1214AEEE70123B1
:105010000093014602231048EF223AF0F6FA0446C4
:105020000028E7D10C4801F0C3FA044630B16D46C0
:105030008AB002AA094B5361164B98E7064801F063
:10504000F7FA04460028D5D06D468AB002AA124B62
:10505000F1E700BFA0030020AC1400201ABC05003B
:1050600037BC050004000001388E050088030020CD
:105070004BBC05007003002063BC050058030020F2
:1050800076BC05002C03002084BC0500A0BC0500F4
:10509000AABC0500C5BC0500D4BC05002DE9F04143
:1050A0000C4B1C6805460E4617467CB100F0EEF826
:1050B00063682046D3F8108032463B462946C047F5
:1050C000044600F0EDF82046BDE8F0816FF00104E1
:1050D000F9E700BF94A0002000230360044B5A6846
:1050E00012B9C3E90000704710605860704700BFF4
:1050F00098A00020014B1860704700BF94A00020CA
:105100001FB5CDE90101039200F0C0F8074B1C6800
:1051100024B900F0C5F8204604B010BD63682046ED
:105120001B6801A998472468F2E700BF98A00020F7
:10513000024B0022C3E90022704700BF98A0002064
:10514000024B0022C3E90022FFF7F2BFA0A000201B
:105150002DE9F74307460C4609B100230B601F4DAC
:10516000DFF87C9000264D450FD31E4B1D6885B39C
:1051700055F8188C01AA41463846183D39F0B9FF58
:1051800010B3D6B914BB2E461EE0D5F8008001AA94
:105190004146384639F0ADFF50B116B954B92E46E4
:1051A00006E031680022404639F0A3FF0028F5D11F
:1051B0001835D8E7019B2360F1E7316800224046AB
:1051C00039F097FF0028DDD1AD69D0E7019B23605E
:1051D000D9E7304603B0BDE8F08300BFB48F0500C7
:1051E000B48F0500A0A000202DE9F04784B002AFE5
:1051F0000446D7F8289078600D4616469846B9F1CF
:10520000000F07D0D9F8001031BBD9F804A0BAF1CB
:10521000000F28D1391D2046FFF79AFF08B3D0F8B8
:105220000C907868434632462946C847C8B16D4657
:105230008AB002AA124BD061C2E905344FF4007360
:105240001384104B42F8103F0F4800234FF41151C4
:10525000FFF79EFBAD4604E03A1D39F04AFF0028F7
:10526000D3D1002007E0D9F808300093786843468E
:1052700032462946D0470837BD46BDE8F08700BF13
:10528000FCBC050004000001C08E050003484FF07F
:10529000FF324FF0FF3324F091BA00BFD41000204A
:1052A000014824F0FDBA00BFD410002038B5094DE4
:1052B000FFF7ECFF2B785BB9FFF742FF00F06AF8CD
:1052C000044608B901232B70FFF7EAFF204638BDDA
:1052D0000024F9E710CF00202DE9F043048F0134BA
:1052E00099B006460F46A4B200F10808651EADB29B
:1052F000B5F5004F4AD04A2305AA2946404639F061
:105300000DFD04F57F543F34A4B2814621460123AC
:105310000DF10B02404639F001FDB9F1000F0146D5
:1053200010DC002810DC338FAB4209D132466B1EF3
:1053300022F8383F4FF4004102234046FEF744FF75
:105340002C46D3E7002808DC2946404639F0E2FC29
:105350002146404639F0DEFCE5E7B9F1490FEFD8C8
:1053600009F160030DEB0309002309F84C3C084ADE
:10537000009703AB05A8CDF80C80ADF81040FFF7FF
:1053800033FF0028DCD019B0BDE8F0830020FAE735
:105390003FF103007FB50123694603200193FFF726
:1053A00097FD044660BB02AA01A9032039F055FE0F
:1053B000044610B110F10C0F22D10399B1F5803FD2
:1053C00023D2009A002394681846084484421AD3D2
:1053D0000133082BF9D10E4D69612B835368AB6003
:1053E0002846D368EB6339F042FF044640B9094EC2
:1053F0006E602846FFF770FE28466E60FFF77AFE63
:10540000204604B070BD9BB2E5E76FF02004F7E7DB
:10541000A8A00020E893050080B505460E46174673
:10542000984625F071FA034600F054FCDFF8189016
:10543000044649F80030424630463946A84754F8F9
:10544000090000F0E7FB00BF0800000038B50C467B
:10545000154639F041FF034B43F8305003EBC003CE
:105460005C6038BDD80C002008B50348034A002111
:10547000121A39F032FF08BD48150020F0DF002075
:105480000748084A084908B5121A39F028FF0748A2
:10549000074A0849BDE80840121A39F020BF00BF8A
:1054A0000000002044150020F0F20500000000205C
:1054B00000000020F0F205002DE9F047064600AF9D
:1054C0000C46002936D0E9468AB0D1E90012A3681B
:1054D0006D462148E8464FF0050ACDE90501CDE9C2
:1054E000072348F810AF1D48424600234FF42151CE
:1054F000FFF74EFACD46D4E903126369AD4618486A
:10550000C5F810A0C5E90501C5E907231348002324
:1055100042464FF42151FFF73BFACD46E369114A69
:105520000E48012139F0AEFCA3690F4A0B48012156
:1055300039F0A8FC012E07D1EFF305830B4A074889
:10554000103B314639F09EFC2146304623F052FE96
:10555000BD46BDE8F08700BF30BD0500A88E050040
:105560005FBD05008EBD05009DBD0500CBBD0500DE
:1055700030BFFFF7FDBF00BF2DE9F0410B4EDFF854
:10558000308006EB0807CC1B054632460949204609
:1055900052F050FFA01942460021083C52F071FF22
:1055A000C5F8B04007F10800BDE8F0810000000038
:1055B00008000000B48F050010B5204C2049214898
:1055C00039F09AFEA36A990136D51E481E4939F072
:1055D00093FE1E20A36ADA0104D51A481B4939F04C
:1055E0008BFE1F20154CA36A1B0304D515481849D0
:1055F00039F082FE2120A36A590304D511481549C8
:1056000039F07AFE22200D4CA36A9A0304D50D4886
:10561000114939F071FE2320A36ADB0304D5094840
:105620000E4939F069FE2420044A936A6FEA034365
:105630006FEA1343936210BD1D20CBE700ED00E03D
:10564000DEBD0500A88E0500F6BD050009BE0500FB
:1056500023BE050041BE050066BE050080BE0500F4
:1056600070B506460D46294C29492A4839F044FEB2
:10567000A36ADB0647D52748274939F03DFE1120AC
:10568000A36A1C0704D52348244939F035FE1220AB
:105690001E4CA36A990712D521491E4839F02CFEE9
:1056A000636BA26A120609D51E4A1A48012139F015
:1056B000E9FB1EB1A36A23F08003A3621320134CFD
:1056C000A36ADE0704D51348174939F015FE1420E4
:1056D000A36A9C0604D50F48144939F00DFE152025
:1056E0000A4B9A6AD10658BF9A6A9A6A920642BFD2
:1056F0005A6A22F400525A629A6A42F0FF029A628F
:1057000000232B7070BD1020BAE700BF00ED00E051
:10571000ABBE0500A88E0500C1BE0500F4BE0500A5
:1057200007BF05001FBF050035BF050054BF0500BA
:1057300070B506460D46284C2849294839F0DCFD4D
:10574000A36AD9043CD52648264939F0D5FD17204F
:10575000A36A1A0504D52248234939F0CDFD182043
:105760001D4CA36A9B0512D51D48204939F0C4FD84
:10577000A36BA26A100409D51D4A1948012139F00A
:1057800081FB1EB1A36A23F40043A3621920124CCB
:10579000A36A590504D51248164939F0ADFD1A20FF
:1057A000A36ADA050ED50E48134939F0A5FD1B2072
:1057B000094A936A43F47F43936200232B7070BDC0
:1057C0001620C5E7A36A9B04F2D505480B4939F0BA
:1057D00093FD1C20ECE700BF00ED00E083BF050057
:1057E000A88E050099BF0500F4BE0500AABF0500FC
:1057F000C3BF0500D8BF0500F3BF050054BF0500B7
:10580000F0B56A4B8BB00446586800AFC0F308038C
:10581000002585F31188BFF36F8F02F07F46B6F144
:105820007F4F07D102F00C06082E0ED16049614867
:1058300039F062FD60495F4839F05EFD002108469D
:10584000FFF73AFE2C37BD46F0BD16074CBF0C469D
:105850000125002CEED00022FA71DA1E092A00F28E
:105860008580DFE802F0057B7E77838383838381F5
:10587000524950484D4E39F03FFD0023FB71F36A09
:105880009A0705D54E494B4839F036FD00232DE0E7
:10589000F36A002B01DA4B49F5E7F36A5B00F5D5B3
:1058A0004949444839F028FD7369A26943F480737B
:1058B0007361BFF34F8FBFF36F8F32F8023C726991
:1058C00022F480727261BFF34F8FBFF36F8F03F4C6
:1058D0007F42B2F55F4F27D1DBB2022B24D1236880
:1058E0003A4A3448012139F0CDFA2368FA79002A7E
:1058F000A8D107F1080604F1200C2068616832463F
:1059000003C2083464451646F7D17A6A002D4AD09E
:10591000C2F3080121B96FEA52226FEA42227A6289
:1059200007F1080118468BE7204B9A6AD2B222B1E0
:10593000F91D0120FFF794FE0EE09A6A12F47F4FE2
:1059400004D0F91D0120FFF7F3FE05E09B6AB3F5D3
:10595000803F9BD3FFF730FE0346C7E7F91D0020C9
:10596000E8E7F91D0020EEE719498CE7194A1A49C2
:1059700010F4F87F6E468AB018BF11466A46103B95
:10598000079316484FF40073ADF82030144BCDE95F
:10599000050142F8103F074800234FF41151FEF76C
:1059A000F7FFB54672E76FF30802B8E700ED00E0D5
:1059B00039C00500A88E050064C00500A0C0050020
:1059C000B7C00500D8C00500E6C0050005C1050048
:1059D00021C1050020C005000BC0050045C1050020
:1059E00004000001044B5A6942F010025A615A69DE
:1059F00022F008025A61704700ED00E0EFF30880E2
:105A0000EFF3098101B57246FFF7FAFE01BD00BF51
:105A10000D4880F3088800200C49087021F07CF9BB
:105A2000202080F311880A484FF40061401880F369
:105A30000988EFF314800221084380F31488BFF330
:105A40006F8F00F07BF80000F0300120E4DF0020D1
:105A5000B01D01201EF0040F0CBFEFF30880EFF320
:105A60000980816911F8021C0229FFD001B5724634
:105A700039F037FC01BD00BF0028ACBF00F1604029
:105A8000064B4FEA4111ACBF00F5614000F00F003A
:105A9000C9B2B4BF195480F80013704714ED00E088
:105AA000EFF30583103B2F2B06D8044A02EBC3010A
:105AB00052F8330049680847704700BFD80C0020EF
:105AC00040B2002807DB044A4109012300F01F000F
:105AD000834042F82130704700E100E040B20028E6
