:10000000D8680020C91B0000F7A80000B51B00003D
:10001000B51B0000B51B0000B51B00000000000070
:10002000000000000000000000000000011C0000B3
:10003000B51B000000000000D11D0000B51B000032
:100040003D1E00003D1E00003D1E00003D1E000044
:100050003D1E00003D1E00003D1E00003D1E000034
:100060003D1E00003D1E00003D1E00003D1E000024
:100070003D1E00003D1E00003D1E00003D1E000014
:100080003D1E00003D1E00003D1E00003D1E000004
:100090003D1E00003D1E00003D1E00003D1E0000F4
:1000A0003D1E00003D1E00003D1E00003D1E0000E4
:1000B0003D1E00003D1E00003D1E00003D1E0000D4
:1000C0003D1E00003D1E00003D1E00003D1E0000C4
:1000D0003D1E00003D1E00003D1E00003D1E0000B4
:1000E0003D1E00003D1E00003D1E00003D1E0000A4
:1000F0003D1E00003D1E00003D1E00003D1E000094
:1001000010F8012B11F8013B012A28BF9A42F7D0C1
:10011000D01A7047034613F8012B002AFBD1181A96
:10012000013870472DE9F04383B00B78082B00AFFE
:100130000C4603D14649606806F0FAF92378092B8A
:1001400011D10023C7E900336468A3681B6D73B144
:100150003A46042120469847034658B13D4A3E4856
:10016000022109F07EFA0C37BD46BDE8F0836FF03E
:100170005703F3E7A3681B6D3BB13A1D02212046EC
:100180009847034620B1354AE9E76FF05703FAE78D
:100190003E68334CD7F804802378B6F1000918BFC5
:1001A0004FF00109B8F1000518BF012513B16378BC
:1001B0004B4520D0B6FA86F12A48490909F03EFAA3
:1001C000002E3ED02849294B6E468AB06A46284800
:1001D0000793284B0893284BCDE9050142F8103FBF
:1001E00000231D484FF4235100F060FF0123B54662
:1001F000237084F80190214C237813B16378AB42CB
:10020000B1D01F48294609F019FAB8F1000F1BD0E8
:1002100015491C4B6E468AB06A461B480793154B1E
:100220000893154BCDE9050142F8103F00230A4819
:100230004FF4235100F03AFF0123B5462370657057
:1002400091E71249124BBFE71049124BE2E700BF9A
:10025000FCD200001ED9000098D500003AD9000059
:100260004252002090D6000005D90000FAD80000C4
:1002700056D9000000020103040000024052002091
:1002800088D6000080E600006BD9000003D900008A
:100290000ED9000015D9000013B550480CF098FA9B
:1002A00048B94F4A4F4801210AF04BFA6FF0120447
:1002B000204602B010BD49480CF08AFA08B94A4AF3
:1002C000F0E746484FF40032102109F09CF904464B
:1002D00030B1464A03464348012109F0C2F9E7E735
:1002E0004348012109F0AAF904460028E0D1414A17
:1002F0003A48182109F087F9044610B13E4A0346EE
:10030000E9E701463D4809F099F904460028CFD1B4
:100310003B4A344803210AF014FA3A493A480AF0B1
:100320003DFC044610B1394A0346D4E73849364803
:100330000AF034FC044610B1364A0346CBE736498E
:1003400031480AF02BFC044610B1344A0346C2E798
:100350000146334A2C4803F0E1F9044610B1314A12
:100360000346B8E7002328480122194603F02EFB74
:10037000044610B12C4A0346ADE703460246014647
:10038000009021480AF077FB1F4801210AF097FBF3
:1003900026491D480AF0CDFE044610B1244A034602
:1003A00099E7194802F010F8044610B1214A0346B3
:1003B00091E7154802F048F8044610B11E4A03467A
:1003C00089E71E4A074803210AF0BBF94FF0FF31C5
:1003D0004FF0FF300CF03BFD6AE700BF70D2000029
:1003E0007ED9000098D5000095D90000AAD9000058
:1003F00090D6000007000200CFD9000088D6000088
:10040000F2D900002C0100201005002023DA0000A2
:10041000140100204EDA0000FC0000207DDA00000C
:10042000D0000020A7DA0000D7DA00002501000084
:10043000FFDA000031DB000062DB00008FDB000030
:100440002DE9F84F8A4600AF002974D004680E1FCA
:10045000361BF50826F0070604EB0608B8F802B0CC
:100460001BF0010B16D1E94688B06A46334BCDE943
:100470000531032342F8103F31485B464FF4C25127
:1004800000F014FECD468BF31188BFF36F8F042369
:10049000184602DF2946204609F0E5F8284434F8DA
:1004A0003030C01A854217D0E94688B06A46254BDD
:1004B000CDE9053A032342F8103F214800234FF4C9
:1004C000C25100F0F3FD0023CD4683F31188BFF342
:1004D0006F8F0423184602DFB8F8023023F00103BF
:1004E000A8F802302946204609F0BDF805EB0008BF
:1004F00004EBC8035B88DA0708D44146204609F0BC
:10050000FBF842462946204609F03BF9A65BAE1BA4
:1005100004EBC6035B88DB0709D43146204609F0AB
:10052000EBF82A463146204609F02BF93546294694
:10053000204609F09DF8BD46BDE8F88F11DC0000AB
:10054000E0D50000E8DB000008B5024809F026FC11
:10055000002008BD3EDC00000E4A9042034602D354
:100560000D4A904211D30D4A22B1934202D30C4A54
:1005700093420AD30B4A52B10B48834234BF012045
:100580000020934238BF002070470120704710467A
:10059000704700BFB0D100006CF200000000000006
:1005A0000000000000000000000000002DE9F04FF6
:1005B0009BB000AF0446D7F890A0FA637B638B46EC
:1005C00049B903784678807800EB830020445E4583
:1005D00022D8A0EB040B0AF0010394F80280FB621E
:1005E000E3783B63B8F1000F0CBF4FF000090AF04D
:1005F000010913B11AF0020F17D1B9F1000F14D18C
:10060000FB6B1BB17A6B5946204698475D462846DE
:100610006C37BD46BDE8F08F451C2846FFF77AFDD4
:10062000013028440BF1010BD1E7CAF3C003FB6191
:100630002378BB629B00BB6163683B62BB6A04EBCF
:100640008301FB6B002B7DD15D468844B9F1000F1F
:100650001DD0A94E8B4699461BF8013B54F8230048
:10066000002808BF3046FFF755FDD7F89430013019
:100670004BB1D7F898304B4582BFD7F8943023F868
:10068000190009F10109C3450544E5D1D8461AF01E
:10069000050F0AF002030CBF4FF0020B4FF0010BE5
:1006A0000026FB633B6B9E42B1D298F8013054F8B0
:1006B00023A05046FFF750FFFA6908F102080346ED
:1006C00002B3B86318F8021C386A09F048FBBB6B28
:1006D000C0B1EA468AB06A46884B05933B6ACDE9C9
:1006E00006314FF40073ADF82030854B42F8103FCF
:1006F000844800234FF4125100F0D8FC023DD54647
:100700000136CFE723B1FB6A2BB9A5EB0B05F7E761
:10071000FB6B002BF4D07848BAF1000F18BF50469D
:10072000FFF7F8FCD7F8943053B1D7F898309945D3
:100730003FBFD7F89420431C22F8193009F1010972
:100740000544DDE7B9F1000F6CD04346102B28BFFC
:100750001023BB6397F8389007F148000026BA6B66
:1007600079620CF0A4FC796A00227A620AF0020233
:1007700001EB08033A610AF004027B61FA6002337C
:100780007A6A396B8A4266D36378F96A7B621AF0B7
:10079000020F4B44DBB20CBF72080022002940F06C
:1007A000A9801AF0040F14BF314600216370A170B4
:1007B000E270B9697A6BFB6B20469847051EFFF61D
:1007C00026AFBB6A23707B6A63703B6BE370314674
:1007D0007A6BFB6B84F8028007F158009847061E7D
:1007E000C0F2C4803A6BBB69386B03EB4203ABEBDE
:1007F0000301D7E90D23C91A7B6903EB4000FB6BAA
:1008000098470028C0F2B4802E4435184FF00008F5
:1008100007F1480AC84577D300217A6BFB6B08467D
:100820009847F4E6B8F1000F0CD01AF0040F0ED080
:100830004346102B28BF1023BB6397F8386007F19D
:1008400058008CE7C7F838804646C1468CE7C7F8A1
:1008500038804E4688E713F8015C13F8021C54F800
:100860002500BB60FFF778FE0246F869BB6838B127
:10087000386AC7E9013209F072FAD7E90132F0B9F2
:1008800012B3FA6A72B1B9F10F0F18D809F1280141
:1008900007F14000014409F1010201F8205C5FFA10
:1008A00082F90CE0FA6852B10F2E08D806F128013F
:1008B00007F14000721C0E1806F8105CD6B27A6A76
:1008C00001327A6202335BE73A69002ADBD10F2EEC
:1008D000F5D806F1280007F1400C6044721C00F8BE
:1008E000101C07F1680151FA82F20236F6B202F8E2
:1008F000105CE4E7002159E77ADC000081DC0000AD
:100900000400000188D5000018F80A3087F8473045
:1009100054F823B0D7F8943033B3D7F898309845CB
:1009200022D2D7F8943033F818607A6BFB6B012130
:1009300007F14700984700281ADB0E4B0544BBF12E
:10094000000F08BF9B4626B95846FFF7E3FB461C3D
:10095000B6B27A6BFB6B314658469847002807DBE6
:10096000054408F1010855E70026DEE735464EE666
:1009700005464CE67ADC0000014B1860704700BF6A
:10098000440100202DE9F047058B0446280717464F
:100990000CD501290CBF45F0100545F02005258335
:1009A00087F31188BFF36F8FBDE8F087022905F048
:1009B000070540F09480204609F083FC052864D8A0
:1009C00001A353F820F000BFA1090000DF0A0000D6
:1009D0008B0A00004D0A0000670A0000790A000037
:1009E00001F007035A1F012A1FD8002221F0070136
:1009F000062BD4F8008089B2C4E9002209D143460D
:100A000003E0628B013262831B68002BF9D141F055
:100A100002012183204609F054FC4FF00009002810
:100A20006DD041F02001218369E0042B0AD121F02F
:100A3000070189B22183204609F043FC10B141F03F
:100A4000200121834FF00008C14658E02369D3F804
:100A50000090238B23F0070343F0060323834FF01A
:100A6000000846464BE02369D3F80490238B23F01B
:100A7000070343F00403F1E72369D3F80890238BBD
:100A800023F0070343F00503E8E74FF00008C146F1
:100A9000E7E7012243F00803238387F31188BFF3BC
:100AA0006F8F002A3BD1B8F1000F4AD1B9F1000F86
:100AB00002D02D492046C847EFF31187202383F346
:100AC0001288BFF36F8F238B23F008039BB223831D
:100AD000D9063FD523F01002228303F0070566698B
:100AE000218B002EBFF67CAF0023D4F8008021F0CC
:100AF0000701C4E9003341F0010121839946238BAA
:100B000003F0070AAA4502D0A268002AC1D1B8F1B1
:100B1000000F02D1B9F1000FDAD00022BAE7A168C4
:100B20000029C0D00D680029BDD04F683346524619
:100B30002046B8471DB12B6829461D46F3E72B46D2
:100B4000FAE74146334652462046D8F8008009F07D
:100B5000E4FBA8E79A067FF523AF23F02002228367
:100B600003F0070527E700BF47A300002DE9F04782
:100B7000DFF85480044607464FF0010994FAA4F5C3
:100B8000B5FA85F509FA05F32E0108EB05156FEAAC
:100B9000030A24EA03042B7B63B158F806301B696F
:100BA0006BB94644042273682846196807EA0A07A5
:100BB00009F057FD002CE1D13846BDE8F087284602
:100BC00098470028F6D1ECE770D6000010B50F4921
:100BD0000F4888B000220CF0DAF900220023CDE99A
:100BE000062300240E23CDE90334CDE90144094B4B
:100BF000094900944FF44072084807F0FDFB08498A
:100C000006480CF046F8204608B010BD250C000040
:100C1000380A0020550F000098520020A805002037
:100C200040DD0000014807F0A7B800BFC80400205D
:100C30002DE9F047804621480F4609F0F2FC0646B0
:100C4000002833D000252846BDE8F087237B83B1F8
:100C50002368DB680BB120469847636883F80690E9
:100C600023681B69D3B9636804221968204609F018
:100C7000F8FC013610345445E8D3B8F1000FE2D047
:100C8000002DDFD02846FFF771FF0546002FF7D073
:100C900000214FF4A4700CF0DAF8F1E720469847F1
:100CA0000028E0D009FA06F31D43E2E7044CDFF820
:100CB00014A005464FF00109DDE700BF100E00202B
:100CC00070D6000080D60000014B53F8200070471A
:100CD000ACD6000008B5034608462BB1044A1360A1
:100CE00000F056FC002008BD6FF01500FBE700BFC8
:100CF0004801002010B5044C237813B9034807F0CD
:100D00003BF80123237010BD44520020C80400208A
:100D100010B504460B4809F084FC5CB1BFF35B8F4F
:100D2000094B53E8001F013943E80012002AF8D1AB
:100D3000BFF35B8F054808F05FF90548BDE8104038
:100D400007F01AB8080E00200C0E0020380A002008
:100D5000C8040020064BBFF35B8F002253E8000F4E
:100D600043E800210029F9D1BFF35B8F704700BF32
:100D7000080E002070B5FFF7EDFF084C084E054641
:100D8000B44200D370BD63685B792BB123685B68A4
:100D900013B12946204698471034F1E770D6000079
:100DA00080D6000010B5044C0449204609F003F930
:100DB000034B1C6010BD00BF2404002098D6000027
:100DC000000E00200D4A0E48002310B513700D4A86
:100DD00013600D4A4FF400411360FFF77BFFFFF7EC
:100DE000E1FF0A4B0A4918468B4200D310BD1A1A7C
:100DF0005C681211013222711033F5E74552002070
:100E00001FA60000080E00200C0E002070D6000067
:100E100080D60000014600220148002309F0ECB80A
:100E200024040020014809F083B900BF24040020F5
:100E3000024B0146186809F0D6B900BF000E002029
:100E4000014809F00BBA00BF2404002070B52A4BFA
:100E50001B78002B4ED0FFF7E5FF0446002846D153
:100E6000264B274D1B68002B19DD0CF048F84FF47A
:100E70007A76A0FB063206FB0121D5E90020DB0BC8
:100E800043EA41439B1A4FEAD13140F2E93261EB28
:100E90000001934271F1000101D3FFF76BFFD5E927
:100EA000003213F57A7342F10002C5E900320CB347
:100EB000BDE87040FFF7C4BF6B685B7923B12B6856
:100EC00021461B68284698471035B542F4D3204682
:100ED000FFF7AEFFBFF35B8F0A4B53E8001F0139EA
:100EE00043E80012002AF8D1BFF35B8FB8E7064D44
:100EF000064EEAE7002070BD44520020080E002094
:100F0000300A00200C0E002070D6000080D60000B1
:100F100070B50D4D297861B90120FFF789FE0B4CA2
:100F20000B4EB44206D3FFF791FF0028FBD10123FB
:100F30002B7070BD63685B791BB1236820469B688A
:100F400098471034EDE700BF4552002070D60000EE
:100F500080D6000000212DE9F8430846FFF768FE1F
:100F6000044648B340F267684FF0000900F078FF8C
:100F70001A4B1B4A1B58136033B11A4B1B68092BC1
:100F800002DD194806F0F8FE184F002544B120464E
:100F9000FFF7ECFD044618B94FF0FF384FF0FF396A
:100FA000FFF754FF064628B9B5B90F4842464B46ED
:100FB00006F018FF3546E9E74FF0FF384FF0FF39EC
:100FC000D4E72B689B691BB100221146284698473D
:100FD0001035BD42F5D3E8E7054DFAE708000000FB
:100FE000040E00200C0E0020C804002080D6000053
:100FF00070D6000013B5184809F013FB174B1B7887
:1010000073B1EFF31184202383F31288BFF36F8F42
:10101000FFF71CFF84F31188BFF36F8F02B010BD80
:101020000F4B1B68002BF9D050B900220023CDE9EB
:1010300000230C484FF40042002307F0B7FFEDE710
:101040000928EBD1074807F0D7FF074802B0BDE8F1
:10105000104006F091BE00BF0C0E0020455200204B
:10106000040E0020380A0020C804002010B5064BEA
:101070001B68044698472146A060044809F039F8E7
:10108000BDE81040FFF7B6BF48010020240400204F
:10109000044A054B9B1AB1EBD30F34BF52F8310011
:1010A0000020704788D5000070D600002DE9F04F71
:1010B0008FB004AFC1F34A26B8600D4690467B60FE
:1010C0000C0D002E61D04FF000090A234FF0040BE5
:1010D00007F1140AFE60C7E90799C7F82490009346
:1010E000CDF808B0CDF804A007F11C03F9684A4612
:1010F0004046FFF75BFAB0F5006F03461CD36C4621
:101100008AB0D8F8041004AB2448C3E9050140F2C2
:10111000FF71D9611A464FF400711984204B42F8CF
:10112000103F20484B464FF41251FFF7BFFFA54632
:101130002C37BD46BDE8F08FC0F30A0604F1170056
:10114000184420F0070080083B60FFF763FE66F359
:101150005325044680B13B68134A00F11001C7E9EA
:101160000839F961CDE901AB0A230093F96807F169
:101170001C034046FFF71AFA66F353257B68B968EB
:101180002A46204609F08DFAD2E704F1170020F034
:1011900007008008FFF73EFE0446EDE755DD00003E
:1011A00004000001A0D5000075A600002DE9F04F55
:1011B00087B0DDE9127ADDE9106B054688461446F2
:1011C0009946BFB11021CDF800A03B465A460020F9
:1011D000CDF814A008F0EAFBB0F5006F01460BD380
:1011E000194A1A4840F2FF73022107B0BDE8F04FD8
:1011F00009F0B0BA3946384604F0070305F0070491
:10120000E40044EA831444EA402444EA065406F124
:101210001700084420F0070080080391FFF7FAFD4B
:10122000054640B13FB10399CDF800A03B465A4670
:10123000103008F0BBFB4B4622464146284607B01B
:10124000BDE8F04F09F02DBA94DD0000A0D50000F4
:10125000406820B1034BC01A40F3CF0070474FF0F5
:10126000FF30704788D500000EB403B503AB0146CC
:1012700053F8042B0448019300F050FF02B05DF8CE
:1012800004EB03B0704700BFB7A70000CA0605D43F
:101290008B064CBF02490349FFF7E6BF704700BF0A
:1012A000CDDD0000CCDD00002DE9F04F8BB099467C
:1012B000179B0793DDE918A39DF858801A9F0692A3
:1012C00004460D460593B8F1000F00F0BF80844B33
:1012D00013F80830089307F48073099309F0BFF9F5
:1012E00007F0020B024600287DD07E492046FFF71A
:1012F000BBFF0646BBF1000F08D017F0440F74D1B6
:1013000079492A462046FFF7AFFF064407F001035C
:1013100053B1764B764953F82820764B2046002A65
:1013200008BF1A46FFF7A0FF07F48073002B07F0F1
:10133000080318BF4FF00009002B00F082806E4BAD
:101340006E4953F828202046FFF78EFF0546069B7E
:101350002BB16B491A462046FFF786FF0544B9F1C9
:10136000000F0DD0089B002B6ED06649664BB8F17C
:10137000040F18BF19464A462046FFF775FF05447B
:1013800062483544079B1BB16149224608F0B6FC10
:10139000059B002B00F09080DDF814903946B9F1E0
:1013A000100F204628BF4FF01009FFF76FFF0026EF
:1013B000B54252DC002633461AF803205549204630
:1013C000FFF752FF0136102E4DD0710703D152495D
:1013D0002046FFF749FF4E453346EDD34F4920469F
:1013E000FFF742FFEEE7064684E74D4B18680028FA
:1013F0008BD04C4B4FF47A7B1B68B5FBF3F54FF465
:101400006163B5FBF0F100FB11550BFB05F54FF0E7
:101410003C0CB1FBF3F203FB1211B5FBF0FEB1FB88
:10142000FCF300FB1E550CFB13110BFB05F50091A3
:10143000B5FBF0F53C49CDE901E52046FFF714FF87
:1014400063E707F0080582E72F4994E7B9F1010F38
:101450000CBF2E483548454694E72F492046FFF7F4
:1014600003FF0136A4E7324920460026FFF7FCFEC1
:1014700033461AF803202F49A2F120035F2B28BF1F
:101480002E222046FFF7F0FE0136102E0DD07207F7
:1014900003D121492046FFF7E7FEB1453346E8D89E
:1014A0001D492046FFF7E0FEEEE7059BB3EB09037D
:1014B000CA4405937FF470AFB8F1000F0AD0FB0760
:1014C00004D50C4A0A492046FFF7CEFE394620468D
:1014D000FFF7DCFE20460BB0BDE8F04F09F05EB927
:1014E0003AF20000DDDD0000E1DD0000BCD60000C6
:1014F0007BD90000CFDD0000D0D6000007DE000061
:101500000DDE0000D4DD0000D8DD0000B7A700002C
:101510001D21000011DE000019DE000017DE0000B2
:10152000180E0020140E0020EBDD0000EDA70000D7
:101530001BDE00001DDE000073B542F20F738B420C
:1015400028BF0B4605680F4A04460521684607F088
:10155000EBFD63680C495B6806460B22284609F0E0
:101560000FF963683246694628465B6809F008F956
:10157000636806495B681B22284609F001F902B03E
:1015800070BD00BFBEE400002EF2000012F20000A9
:10159000074A00210123904206D8064A01B90123D7
:1015A0001360054B1860704740085B000121F2E7AB
:1015B00040420F00140E0020180E0020F8B5074F0F
:1015C0000D4604464618B44201D12846F8BD14F829
:1015D000011BBB6801485B689847F4E7C4D2000070
:1015E000014B03600020704718D7000080B5054606
:1015F0000E461746984607F01BFA034600F030FCEB
:10160000DFF81890044649F8003042463046394623
:10161000A84754F8090000F0C5FB00BF080000000F
:1016200008B50348034A0021121A09F05CF908BD05
:10163000A8050020985200200748084A084908B524
:10164000121A09F052F90748074A0849BDE808404C
:10165000121A09F04AB900BF00000020A4050020BA
:101660006CF2000000000020000000206CF200007E
:101670002DE9F047064600AF0C46002936D0E94672
:101680008AB0D1E90012A3686D462148E8464FF0C0
:10169000050ACDE90501CDE9072348F810AF1D483B
:1016A000424600234FF42151FFF700FDCD46D4E917
:1016B00003126369AD461848C5F810A0C5E90501D5
:1016C000C5E907231348002342464FF42151FFF791
:1016D000EDFCCD46E369114A0E48012109F03AF8C4
:1016E000A3690F4A0B48012109F034F8012E07D1F4
:1016F000EFF305830B4A0748103B314609F02AF8FF
:101700002146304605F074FFBD46BDE8F08700BFB6
:101710005ADE0000D8D5000089DE0000B8DE0000E7
:10172000C7DE0000F5DE000030BFFFF7FDBF00BFE1
:101730002DE9F0410B4EDFF8308006EB0807CC1B9B
:1017400005463246094920460BF0B1FCA019424635
:101750000021083C0BF0B9FCAC6707F10800BDE8BC
:10176000F08100BF000000000800000080D60000EB
:1017700010B5204C2049214809F0C4F8A36A99010A
:1017800036D51E481E4909F0BDF81E20A36ADA01AD
:1017900004D51A481B4909F0B5F81F20154CA36A57
:1017A0001B0304D51548184909F0ACF82120A36A99
:1017B000590304D51148154909F0A4F822200D4C0D
:1017C000A36A9A0304D50D48114909F09BF8232018
:1017D000A36ADB0304D509480E4909F093F82420D5
:1017E000044A936A6FEA03436FEA1343936210BD9E
:1017F0001D20CBE700ED00E008DF0000D8D5000099
:1018000020DF000033DF00004DDF00006BDF000051
:1018100090DF0000AADF000070B506460D46294C97
:1018200029492A4809F06EF8A36ADB0647D52748FC
:10183000274909F067F81120A36A1C0704D523483B
:10184000244909F05FF812201E4CA36A990712D5AB
:1018500021491E4809F056F8636BA26A120609D5A1
:101860001E4A1A48012108F075FF1EB1A36A23F031
:101870008003A3621320134CA36ADE0704D5134828
:10188000174909F03FF81420A36A9C0604D50F48B5
:10189000144909F037F815200A4B9A6AD10658BF47
:1018A0009A6A9A6A920642BF5A6A22F400525A62AF
:1018B0009A6A42F0FF029A6200232B7070BD1020DA
:1018C000BAE700BF00ED00E0D5DF0000D8D500008A
:1018D000EBDF00001EE0000031E0000049E0000006
:1018E0005FE000007EE0000070B506460D46284C23
:1018F0002849294809F006F8A36AD9043CD52648A6
:10190000264908F0FFFF1720A36A1A0504D52248CC
:10191000234908F0F7FF18201D4CA36A9B0512D538
:101920001D48204908F0EEFFA36BA26A100409D5F8
:101930001D4A1948012108F00DFF1EB1A36A23F4C6
:101940000043A3621920124CA36A590504D512481A
:10195000164908F0D7FF1A20A36ADA050ED50E48FB
:10196000134908F0CFFF1B20094A936A43F47F43D1
:10197000936200232B7070BD1620C5E7A36A9B04F9
:10198000F2D505480B4908F0BDFF1C20ECE700BF6D
:1019900000ED00E0ADE00000D8D50000C3E000009D
:1019A0001EE00000D4E00000EDE0000002E10000D5
:1019B0001DE100007EE00000F0B56A4B8BB00446EC
:1019C000586800AFC0F30803002585F31188BFF302
:1019D0006F8F02F07F46B6F17F4F07D102F00C0601
:1019E000082E0ED16049614808F08CFF60495F48BD
:1019F00008F088FF00210846FFF73AFE2C37BD4665
:101A0000F0BD16074CBF0C460125002CEED000227D
:101A1000FA71DA1E092A00F28580DFE802F0057B00
:101A20007E77838383838381524950484D4E08F0EB
:101A300069FF0023FB71F36A9A0705D54E494B48AD
:101A400008F060FF00232DE0F36A002B01DA4B4918
:101A5000F5E7F36A5B00F5D54949444808F052FFC1
:101A60007369A26943F480737361BFF34F8FBFF34F
:101A70006F8F32F8023C726922F480727261BFF398
:101A80004F8FBFF36F8F03F47F42B2F55F4F27D1C3
:101A9000DBB2022B24D123683A4A3448012108F0F2
:101AA00059FE2368FA79002AA8D107F1080604F143
:101AB000200C20686168324603C20834644516462B
:101AC000F7D17A6A002D4AD0C2F3080121B96FEA32
:101AD00052226FEA42227A6207F1080118468BE728
:101AE000204B9A6AD2B222B1F91D0120FFF794FE71
:101AF0000EE09A6A12F47F4F04D0F91D0120FFF71F
:101B0000F3FE05E09B6AB3F5803F9BD3FFF730FE01
:101B10000346C7E7F91D0020E8E7F91D0020EEE7BE
:101B200019498CE7194A1A4910F4F87F6E468AB0B1
:101B300018BF11466A46103B079316484FF40073CE
:101B4000ADF82030144BCDE9050142F8103F0748AD
:101B500000234FF41151FFF7A9FAB54672E76FF36E
:101B60000802B8E700ED00E063E10000D8D500000E
:101B70008EE10000CAE10000E1E1000002E20000A5
:101B800010E200002FE200004BE200004AE10000FA
:101B900035E100006FE2000004000001044B5A69C7
:101BA00042F010025A615A6922F008025A617047E5
:101BB00000ED00E0EFF30880EFF3098101B5724614
:101BC000FFF7FAFE01BD00BF0B4880F3088805F05F
:101BD000B9F8202080F3118808484FF400614018BC
:101BE00080F30988EFF314800221084380F31488FE
:101BF000BFF36F8F00F06CF8D8680020985B00206E
:101C00001EF0040F0CBFEFF30880EFF30980816929
:101C100011F8021C0229FFD001B5724608F067FED8
:101C200001BD00BF40B2002807DB044A410901237F
:101C300000F01F00834042F82130704700E100E0CF
:101C400040B200280CDB4309064900F01F00203396
:101C50000122824041F82320BFF34F8FBFF36F8FE3
:101C6000704700BF00E100E0054B420900F01F0093
:101C700053F82220012303FA00F01040704700BF00
:101C800000E100E040B20028A8BF00F1604001F18F
:101C90000101B8BF064B4FEA4111ACBF00F56140EE
:101CA00000F00F00C9B2B4BF195480F80013704798
:101CB00014ED00E0044B054A23F07F039360BFF36B
:101CC0004F8FBFF36F8F70470000000000ED00E002
:101CD00008B5FFF7EFFF0B4AD2F8883023F4700302
:101CE000C2F88830EFF3148323F0040383F31488DD
:101CF000BFF36F8FFFF794FCFFF79EFC00F092F8A4
:101D000005F0A2FD00ED00E042F8203C009B42F807
:101D10001C3C0A49019B42F8183C029B42F8143CC7
:101D200021F001014FF0807342F8043C42F8081C96
:101D30000023203A0265C367704700BFED1500001D
:101D400000B50B4B98600B4B1546826F1A600E4620
:101D50002C4686F309880020034B98472046002133
:101D600000220023014C20471BA90000ED150000B4
:101D700008520020400E0020014B10221A617047CB
:101D800000ED00E0054B5A699B689A421FBF044A68
:101D9000536843F080535360704700BF08520020DF
:101DA00000ED00E0084B9B6883420BD1EFF3058305
:101DB00043B1064B5A6842F080525A605A6A22F484
:101DC00000425A620AF06ABF0852002000ED00E0AB
:101DD00011498A684FF030001044EFF3098C80E815
:101DE000F01F202080F31288BFF36F8F0B4F4FF04E
:101DF00000664A698A603E60906F094C2060D06F2F
:101E00000023D36780F3118802F1300090E8F01FBF
:101E10008CF30988704700000852002004ED00E0B0
:101E2000400E0020044800232021C2180133302B2B
:101E300082F80013F9D1704700E100E008B5EFF334
:101E40000583064A103B02EBC30152F83300496890
:101E50008847BDE80840FFF795BF00BF18D30000D2
:101E60000148006870470000400E0020024B034A02
:101E70000348012100F07AB800000420000000208F
:101E800018D7000008B503461048D0F89020C2F3D8
:101E90000722013A934207D90D480E4A012108F062
:101EA00059FC6FF0150008BDC0F898300A6822F0A0
:101EB0001F021A4342F01002C0F89C208A6842F0C8
:101EC0000102C0F8A0201846EDE700BF00ED00E0D9
:101ED000B8D5000086E20000F0B50E4685B01F467A
:101EE00004460025B5420DDA606810B397B1431E71
:101EF00018420AD0104A11482B46012108F02AFC4A
:101F00006FF01502104605B0F0BD1F28F2D9216808
:101F10000B42EFD12368019308F013FDA36801A9D8
:101F20000343D0B20393FFF7ADFF10F1160FE7D0D4
:101F3000421C01350C34D5E7ACE20000B8D50000F6
:101F4000044B0522C3F89420BFF34F8FBFF36F8F6C
:101F5000704700BF00ED00E0BFF35F8F024B00222F
:101F6000C3F89420704700BF00ED00E010B5034CAB
:101F700001232278FFF7B0FF207010BD47520020E8
:101F80002DE9F0435F486049D0F890300C68C3F306
:101F900007239C4285B000F2B280FFF7DDFF49685D
:101FA0000022944201F10C011AD1584F584D3C7057
:101FB0006846FFF715FB574C574E81464FF0000817
:101FC000C14520D13B784F490020D1F89020C2F381
:101FD00007229342C0F28D80FFF7B2FF002052E04B
:101FE000C0F8982051F80C3C23F01F03134343F032
:101FF0001003C0F89C3051F8043C43F00103C0F8D2
:10200000A0300132CDE7009800EB08114FEA081C20
:10201000CB682340B3F5000F4ED00BD8B3F5001FAB
:1020200034D0B3F5800F3CD0B3F5801F16D008F143
:102030000108C5E7B3F1007F46D0B3F1805F4BD014
:10204000B3F1807FF3D150F80C3088684A6808F00B
:1020500078FC40F0885040F4801009E050F80C30D3
:1020600088684A6808F06DFC40F0885040F43020E1
:10207000039001A93878CDE90123FFF703FF002879
:1020800033DA6FF0150005B0BDE8F08350F80C307E
:1020900088684A6808F055FC40F0885040F40020F9
:1020A000E6E750F80C3088684A6808F04AFC40F0CF
:1020B000C06040F40030DBE750F80C3088684A68B4
:1020C00008F03FFC2843D3E750F80C3088684A6892
:1020D00008F037FC3043CBE750F80C3088684A688A
:1020E00008F02FFC40F08850E3E73B7801333B7069
:1020F0009DE7C1F89830C1F8A000013365E74FF0C3
:10210000FF30C0E700ED00E024D700004752002078
:10211000000004110000F0FF00000410F0B587B0CB
:1021200007460E4614460021102268461D460AF056
:10213000CCFF02238DF802302A46054B019321463D
:102140006846CDE9047607F019F807B0F0BD00BF86
:1021500063A9000008B5024B1B689847002008BD22
:10216000440E0020034B044A1860937843F00203A6
:1021700093707047440E00205401002008B50649B2
:10218000064821F00701C1F1005202F5802207F054
:10219000CCFB002008BD00BF177C0020480E0020AB
:1021A00070B54169867A0B4D044659B1437ADB0715
:1021B00006D4242303FB0653DB691B689B689847FE
:1021C000002363612420214600FB0650BDE87040D7
:1021D0000AF089BCEC040020024B242202FB0030F0
:1021E000704700BFEC0400202DE9F04385B00546A0
:1021F0006846039190461C460AF083FEDDE90067BD
:10220000EFF31189202383F31288BFF36F8F6B8A5A
:10221000002B41D02A8A9A4225D900220023284641
:1022200005F074FD0446F0B189F31188BFF36F8F98
:10223000039B002B41D032463B4668460AF086FE9F
:10224000A27A264B242101FB02332046DB691B685E
:1022500003A91D68DDE90023A847606170BB204623
:10226000FFF79EFF24E0698A4B1E6B8289F3118879
:10227000BFF36F8F2B7D2A8A2C6A1B3323F0030355
:10228000521A02FB0344154B154AEB1A9B10534399
:10229000A3722B7DE372CBE789F31188BFF36F8FB5
:1022A00023464246284605F031FD04460028BFD1AA
:1022B0000024204605B0BDE8F083636101230025BA
:1022C0002381039B6382E27A6560294604F118004A
:1022D0000AF0FBFE63692582E360EAE7EC04002074
:1022E000398EE338F8B5124D0024242600B9F8BD24
:1022F00000F108024768BFF35B8F52E8003F591EA8
:1023000042E8001CBCF1000FF7D1BFF35B8FDBB2DA
:10231000012BECD1837AC46006FB035344609B69B4
:1023200013B198473846E1E7FFF73AFFFAE700BFF5
:10233000EC040020044A0123C2F840354FF08042EB
:10234000C2F87835704700BF00E0014048B1054B46
:10235000054A1B68B3FBF2F35843044B43F00103F7
:10236000184770479C03002040420F0080D60000B1
:1023700008B5054A054B136010463F23536004F02F
:10238000B7FD002008BD00BF540E0020FFFF0F0066
:1023900008B50A480AF01CFA68B108480AF018FAA9
:1023A00048B1074A0548192108F03AFB054A034895
:1023B000022108F035FB002008BD00BF70D20000EC
:1023C0000100160001001A0038B5044606F00CFBA7
:1023D000204608F042FBA069C8B194F86C30DB07D6
:1023E0000DD5164A1648022108F035FB6FF0770527
:1023F000201D08F039FB06F00BFB284638BD0AF01B
:10240000E7F938B90F4A0E48012108F024FB6FF0B4
:102410001205EDE7204600F091FF05460028E7D1C0
:102420000146242204F128000AF04FFE94F86C3093
:1024300043F0010384F86C30DAE700BFFCE20000EF
:1024400048D6000026E3000070B5044606F0CCFA3A
:10245000204608F002FB94F86C30DA070DD4264AC7
:102460002648022108F0F7FA4FF0FF35201D08F04A
:10247000FBFA06F0CDFA284670BDC3F340019B0776
:1024800007D51F4A1D48022108F0E5FA6FF07705CD
:10249000ECE7A06909F0F9F90646A06909F064FAC9
:1024A000054628B1174A1548012108F0D4FADDE79E
:1024B000A36F4BB13146204608F0A0FC0546A0B101
:1024C000A06909F07DFAD1E7A06909F0F5F9A067E4
:1024D0000028EFD10C4A0948012108F0BCFAA06994
:1024E00009F06EFA6FF00B05C0E794F86C3043F01A
:1024F000020384F86C30B9E749E3000048D60000D5
:102500006FE3000095E30000B1E3000038B58021DF
:102510000446806909F0F3F9054678B10146204682
:1025200001F01CFB044638B10648074A012108F0B7
:10253000C3FB2846FFF7D6FE204638BD6FF00B04DC
:10254000FAE700BF28D60000E0E3000038B50446F3
:10255000806F08F022FA054608F01AFA204629464C
:1025600001F0FCFA044638B10448054A012108F09C
:10257000A3FB2846FFF7B6FE204638BD28D600004C
:1025800003E400002DE9F04F95B002AF00237B611A
:102590000B7E33F080050446884616460BD0B24ABF
:1025A000B248012108F088FB6FF0040528464C373B
:1025B000BD46BDE8F08F8AB10846FFF793FE98F854
:1025C0001930DA0705D49E07F0D598F81830002B9B
:1025D000ECD12046FFF7BAFF00F095BC4A7E00F12F
:1025E0002809900705D5802B09D14046FFF77AFED0
:1025F000DCE7910700F0C784002B40F0C484D307C8
:102600002AD5B8F81030082B13D1D8F80C2013684D
:10261000A3625368C9F804304146002008F0C4F9A9
:102620007861D8B19148924A012108F045FB786958
:1026300005E08E488F4A012108F03EFB4046FFF737
:1026400051FE484608F032FB0346A069002B00F01B
:10265000D584802100F0DBBCC7F81480FFF700FCB4
:1026600094F82850844A002315F0600F8350C5F376
:10267000411375D0032B40F006846FF08505FFF7FA
:10268000EFFB7D4B1B58002B41D0002D42D10AF0AF
:1026900036FC4FF47A72A0FB020302FB0131C30B3C
:1026A00043EA41437549BFF35B8F0868BFF35B8F13
:1026B00041F287321E1A9642714A40F2EC83BFF310
:1026C0005B8F51E8006F864204D141E8003CBCF1C9
:1026D000000FF6D1BFF35B8F40F0DD83BFF35B8F5C
:1026E00052E8003F42E800510029F9D1BFF35B8F67
:1026F00023B1644A5D48022108F02CF8624A5B4825
:10270000022108F0D9FAFFF7ABFB5B4B1D58002DF7
:1027100000F0D8835D4A5548032108F0CDFA6E4693
:1027200088B002AA5A4B53615A4B93614FF400731D
:102730009383594B42F8103F58494C484B46FEF79B
:10274000B5FC15F1860FB54640F0B183544A4748B1
:10275000032108F0B1FA786900287FF470AF70E7C0
:10276000484608F0A3FA94F82930002840F0518137
:10277000013B0A2B81D801A252F823F01D29000049
:102780007B2600008D2900007B260000A927000081
:102790007B2600007B2600007B2600001728000017
:1027A0007B260000D3280000A069618D03697F2982
:1027B00093F880303FF661AFA28D002A7FF45DAFC1
:1027C000E28D002A7FF459AFEE067FF456AF94F8FD
:1027D0003020022A02D14FF0FF3550E71D070BD5FC
:1027E000C9B208F09EFA054648B1638D2D4A1F48CC
:1027F000012107F0AFFF42E7012384F8393094F854
:102800003030012B05D1638D1BB984F830300025A1
:1028100035E70123F9E7204608F028F9628DFF2A01
:1028200001463FF62AAFE38D002B7FF426AF94F8E4
:102830002830D8067FF421AF94F83030002BCAD06E
:10284000A2BB618D94F838308B42E0D0C9B22046EB
:1028500000F00CFF638D054678B3134A0090012108
:10286000024807F081FF0AE722E4000028D60000B2
:102870005AE4000043E400000C000000600E002059
:102880005C0E00202FE5000043E500006CE5000031
:102890007BD900007CE5000003000001C01C800023
:1028A00083E500007CE400009EE40000D2B22046F4
:1028B00008F0E3FA0028C4D18DE7002B14BF0222F0
:1028C000012284F8302005211A46204608F04BFCEE
:1028D0009DE705F01F05012D7FF4CFAEE38D002BA2
:1028E0007FF4CBAE628DFF2A3FF6C7AEA18DFF29E4
:1028F0003FF6C3AE94F83030022B7FF46CAFC9B210
:10290000D2B2204608F069FB811C05467FF4B7AEC1
:10291000A54AA648032108F0CFF9B0E6E38DA68DBD
:10292000002B7FF4AAAE94F83030002B3FF453AF65
:10293000012B02D1002E7FF44EAF15F01F0517D0EA
:10294000022D7FF464AFB4F82AA0BAF1000F7FF42F
:102950005EAFF6B23146204601F068F9421C0546EA
:102960003FF48DAE52463146204608F0A7F986E680
:10297000002E7FF430AF638D012B7FF448AF94F8C5
:102980006C3066F3C30384F86C3040E7A38DE28DAE
:10299000DEB2002A7FF471AE628D022A11D105F0F9
:1029A0001F0535434FEA13217FF467AEA06901226A
:1029B00008F094F900287FF460AE012384F83930E0
:1029C00025E794F8301000293FF405AF012902D122
:1029D000002B7FF400AF15F01F050FD0022D7FF400
:1029E00016AF002A7FF413AF3146204601F0FCF801
:1029F000431C05463FF443AE0122B4E7002B7FF4AD
:102A0000EAAE012A7FF403AF94F86C3043F0080378
:102A1000B9E70A2B64D8DFE813F00B00630063000A
:102A20006300630063003A00630001026300160262
:102A3000E38D022B54D194F83030002B50D0012B71
:102A4000A18D01D100294BD115F01F050ED0022D0B
:102A500017D000260221204608F03CFB054618B19D
:102A600031460C3007F0C3FF7D61D0E6002937D135
:102A700094F86C309E0806F00206C3F300131E4360
:102A8000E8E7C9B2204608F049FB0646E2E7668D52
:102A9000ED064FEA1621F6B208D0002307F128010F
:102AA0002046BB6208F059F9BD6ADDE701390E29FD
:102AB00016D8DFE811F00F003300A1001500150053
:102AC0009D009D001500150015001500150015004E
:102AD00015004001204607F0C9FF18B101281AD09F
:102AE0000025C1E7D4F870A0BAF1000FF8D0E68D48
:102AF0009AF800309E4228BF1E463146204608F014
:102B0000E9FA05460028AFD03246514605F10C00DF
:102B100007F05CFFA8E7D4F874A0E5E7204607F0CB
:102B2000A5FF751CF8600146EAB2204608F07DF961
:102B3000064630B91E4A1D482B46012107F00AFE01
:102B4000CEE7D0F804A0E18DBAF80220914228BF68
:102B50001146204608F0BEFA05460028C0D0018A7A
:102B6000428A00F10C0B521AC1684069091A521AC4
:102B70009AF800108A4228BF0A465846514607F084
:102B800025FFF6684EB9298AE38D99427FF66CAF2E
:102B9000C91A584607F035FF66E770688268126BFD
:102BA00042B93668EEE700BFC1E4000028D6000055
:102BB000E7E40000F96890470028F2D0A0F1040A89
:102BC0005AF8041F0029ECD00B78002BE9D06A8A50
:102BD000288AA2EB000C6A69E868801AACEB000254
:102BE00093428CBF92B21A46584607F0EFFEE7E7D1
:102BF000204607F03BFF73E732460321204607F0EB
:102C0000B3FF824600283FF46BAF08F04AF8E58D29
:102C10009AF81530C0B99AF8146087F8286087F8D8
:102C20002930DAF81030AE4228BF2E461B887B854B
:102C30003146204608F04EFA054600283FF450AFD2
:102C4000324607F1280161E7BA4A7B74DAF80830A6
:102C50001A40B94B4FF0000B9A4287F810B05AD186
:102C6000102107F1180009F054F8061E3ADB07F1AD
:102C70002802102EB14807F11801924628BF1026ED
:102C8000B34502F1020236D3B6000236F6B23E7404
:102C9000AE4228BF2E463146204608F01BFA0546B4
:102CA00000283FF41DAF022EB34600F10C0328BFED
:102CB0004FF0020B5A46A6EB0B06184607F110011F
:102CC000FB60D34607F082FE73080AEB5602934579
:102CD00027D1F0077FF5C8AE1AF80310F86807F09F
:102CE0007EFEC1E658367FF4FBAE954A9548012139
:102CF00007F0E2FFF4E611F8013B4FEA131C03F082
:102D00000F0310F80CC0C35C02F802CC02F8013CBF
:102D10000BF1010BB4E79AF814603E74DAF810A0D6
:102D2000B6E71BF8011BF868C7E9013207F05FFE40
:102D3000D7E90132CBE7204607F098FE20B1012801
:102D40007FF4CEAE636F00E0236F002B3FF4C8AE7C
:102D50005B88B3F5007F7FF6C3AE7B4BBB6200237D
:102D600087F82C30E36C04F14C0B9B4508BF002323
:102D70007A8D83B1597D0F2907D1197D0A447A854F
:102D800097F82C20013287F82C20226D9A4201D02E
:102D90001B68EDE77A8DE68D964228BF16463146D0
:102DA000204608F097F9054600283FF499AE97F8B9
:102DB000282000F10C0AB24228BF324607F1280150
:102DC000504607F003FE97F82830B34294BFF61A36
:102DD000B61B002E3FF448AEE36C5B453FF444AEB7
:102DE000002B3FF441AE5A7D0F2A11D11A7D19698B
:102DF000FB60B24228BF3246504607F0E7FDFB6851
:102E00001A7DB24294BFB61AB61B002E3FF42CAE08
:102E1000226D9A423FF428AE1B68E1E794F8303007
:102E2000002B3FF45DAEE18D01297FF459AE94F89B
:102E30003860204608F04EF9054600283FF414AEED
:102E400031460C304BE705F01F05012D7FF448AEED
:102E5000204607F0FEFF00283FF442AEA38D4268F3
:102E6000FF2B3FF63DAE12799A42FFF439AEDAB24B
:102E70000F2A3FF635AEE18D01297FF431AE2344B0
:102E800093F83A60D5E707F11401204607F065FF93
:102E90000546FFF7F4BBBFF35B8F52E8003F0133F9
:102EA00042E800310029F8D1BFF35B8F2BE40135F4
:102EB0007FF451AC94F83030244A2248032107F0C3
:102EC00049FC48E498F81930E28DD90708D4EAB9EA
:102ED0002046FFF71BFB00287FF4B3ABFFF779BB5D
:102EE000484607F0E3FE0028F1D1002AF0D0294639
:102EF000A06908F0F0FC0146786100283FF4A1AB1E
:102F0000204600F02BFE0546FFF750BB484607F071
:102F1000CDFE7D6918B92846FFF7E4F9D8E7002D02
:102F20003FF48FAB2946204600F018FE80B12846BA
:102F3000FFF785BB00FF0200000302003FF2000024
:102F40000DE5000028D60000050F050091E5000002
:102F5000A069036993F8801011F004017FF439AB84
:102F600008F0CDFC054600283FF46BAB0146204637
:102F700000F0F4FD00283FF42CAB274A274801213C
:102F800007F09AFED3E752077FF55BAB002B3FF4C7
:102F90002CAB4046FFF7A6F994F83930002B3FF4EC
:102FA00005AB94F82930052B0CD1618DA069C9B20D
:102FB00007F0B7FE064628B1638D194A174801216C
:102FC00007F0C8FB94F82930032B11D1638D022B35
:102FD0000ED1A18DA0690D0A0022294607F07EFEC0
:102FE000064628B10F4A0D482B46012107F0B2FBD7
:102FF000002384F839303546FFF7D8BAE38D002B2B
:103000003FF427AB7969003918BF0121C90108F0E5
:103010009CFBFFF7DEBA00BFB2E5000028D6000037
:103020007CE40000D6E500000B78062B10B414D128
:103030000369D3F89C20EFF31184202383F31288D3
:10304000BFF36F8F4B6800201860506A58B9C2E90F
:10305000083384F31188BFF36F8F044810BC00223B
:10306000002309F0A0BC03605362F2E79004002043
:1030700030B589B000220023CDE9062300246FF08B
:103080000703CDE90334CDE901441A4B1A490094F2
:103090004FF48062194805F0AFF91949174809F053
:1030A000F8FD184B18498B4207D3184B18490020DC
:1030B0008B4210D3002009B030BD03F11402BFF3DE
:1030C0005B8F52E8000F42E80045002DF9D1BFF3B5
:1030D0005B8F1833E7E703F11402BFF35B8F52E80D
:1030E000004F42E80005002DF9D1BFF35B8F183384
:1030F000DEE700BF6D31000098550020700A002007
:10310000ADDB00008C050020A4050020A4050020F4
:10311000A405002038B50D4607F09BFE30B9114AD2
:103120001148BDE83840012107F00BBBC46804B961
:1031300038BD2B78032B05D0052B0ED0022B08D0E1
:103140002468F4E7606883685B69002BF8D09847CF
:10315000F6E7606883689B69F7E760688368DB6906
:10316000F3E700BFFDE5000038D600002DE9FF4180
:1031700020274FF0FF336B484FF0FF3201A904F0D6
:103180009FFC039B1B69D3F89C40236A93B1EFF328
:10319000118287F31288BFF36F8F216A29B1606AA9
:1031A0000B682362814208BF636282F31188BFF318
:1031B0006F8FC9B99DF80430062BDAD0072BD8D809
:1031C00001A252F823F000BF0D32000001320000CE
:1031D000353200001332000069320000573200001F
:1031E00073310000153300000B7ED1F81E205D0600
:1031F000204602D1FFF7C6F9C7E707F07CFEC4E717
:1032000000220121204607F0AEFFB2E7002211465E
:10321000F8E794F86C3043F0040384F86C3094F8C9
:103220003030022B03D101A92046FFF773FF0022A3
:103230000321E7E794F86C3023F0040384F86C3042
:1032400094F83030022B03D101A92046FFF762FF2A
:1032500000220221D6E794F83030022B89D101A94F
:103260002046FFF757FF84E794F86C30A66923F0F7
:10327000040384F86C30D6F808803369BFF35B8FA1
:10328000D3F8A030BFF35B8F9A071ED5D8F83C3037
:1032900030469847D8F82430002130469847D8F86F
:1032A000403005463046984795B11F4A1F480121D6
:1032B00007F047FA00220421204607F054FF002DB2
:1032C0003FF457AF2A4607219CE74FF0FF35ECE764
:1032D0002946204600F0CAF9054608B1144AE5E738
:1032E000A06908F02BFB0346124A1048032107F09F
:1032F00031FAA06908F022FB831E5842584194F825
:103300006C3084F8305023F0680343EA401384F8AB
:103310006C30CFE7084A0548012107F012FA029AFB
:1033200006216FE7900400202CE6000038D600004C
:103330005AE6000086E600009DE6000038B5024629
:103340000C490546806908F05FFB044630B10A4A23
:103350000A48012107F0F5F9204638BD85F8380004
:10336000284600F04FF804460028F5D0A86908F078
:103370007EFBF1E729300000ADE6000038D6000002
:10338000F8B501231D460C68002C35D063F07F0290
:10339000D6B202F07F02103224FA02F7FF0716D5E8
:1033A000046824FA02F7FF0708D433461348144A86
:1033B000012107F0CFF96FF01500F8BD05FA02F210
:1033C00024EA020404600C6824EA02040C60DC4075
:1033D000E6070ED5026822FA03F4E40700D4E5E715
:1033E00005FA03F422EA040202600A6822EA0402EF
:1033F0000A600133102BC6D10020DEE760D6000042
:10340000D4E600002DE9F04F8369026F1B6993F841
:103410008030C3F34113022B8FB083460ED0032BB1
:103420000ED0012B0CBF10230823D371DBF854807E
:103430000027B8F1000F05D14446DDE02023F4E772
:103440004023F2E7D8F80430D8F80C5002930C97D8
:103450000497BDB9049B029A09339BB293701B0A6F
:10346000D37017715388764A009376483B46032100
:1034700007F07AF9D8F80C40002C40F0D380D8F847
:103480000080D5E7686883681B6B00240D94002BCF
:1034900000F0B98021469847002800F0B480C5E9C3
:1034A0000344031F03933E46039A52F8043F0392DA
:1034B0000BB11A789AB9BE4240F2A280EB680D9A1D
:1034C0001343EB60686883689B6A002B00F09D8063
:1034D00098470446002800F09B805B4A80E05A78B9
:1034E0000B2A08BF9E70039B1B685A78042A10D1D0
:1034F000EA680D990A43EA60DA78002A60D19E7082
:103500002B690122B240134301362B61F6B200232E
:103510000D93039BD3F8009099F80130052BC3D18C
:10352000DBF8183008936FF012044FF0010A99F895
:10353000052099F8043043EA0223ADF82E300C9BA5
:10354000069399F90230069A002B5FFA8AF1BBBF05
:1035500041F080014BB24FFA8AF30793B9BF21F0D3
:103560008003103307935346DA40D2072FD40D9AC5
:10357000059222FA03F3DB0729D499F8063099F86B
:103580000320089800930DF12E03099108F052F8DA
:1035900009990446D8B9079B89F80210002BBCBFD3
:1035A00021F08001103101238B4006980599BDF868
:1035B0002E20A9F8042019431843CDE90C0173E724
:1035C000721E9A700DA90CA8FFF7DAFE9FE70AF1A8
:1035D000010ABAF1100FAAD1002C3FF465AF1B4AC3
:1035E0001848012107F0ADF8D8F804305B79184A83
:1035F0001448012107F0AEF820460FB0BDE8F08F67
:103600006FF01504EBE73E465CE76FF0850464E776
:103610000146686807F03FFC049B2D68034404934F
:10362000374616E7E368A36004F10C010CA8FFF726
:10363000A7FE08B924681FE76FF01504D4E700BFA0
:1036400039E7000060D6000015E70000F1E6000051
:103650005BE7000008B5034A0348032107F0DAFBE3
:10366000002008BD88E7000020D600002DE9F041C9
:1036700005460E4607F0FAF995F8383080463BB318
:10368000284607F0E6FB0746F8B10146284607F052
:1036900052FC10220446002105F13A0009F015FD04
:1036A000002385F83830FF6847B98CB1194A1A48A9
:1036B000012107F0AFFB2046BDE8F0817868836800
:1036C0005B6A03B198473F68EEE76FF03C04EDE7B3
:1036D0001EB985F838600024EDE732464146284699
:1036E00007F0A3FB074690B10246284607F04DFCC1
:1036F00004460028DFD185F83860FC68002CEAD049
:10370000606883681B6A03B198472468F6E76FF026
:103710003C04D0E7AEE7000020D60000F8B5044630
:103720000E465768154607F077FB94F86C30D907BA
:103730000BD53A4A3A48012107F06CFB6FF00F06AF
:10374000201D07F070FB3046F8BD012E07D1354A29
:103750003348012107F05EFB6FF08506F0E7FB7947
:103760009A0607D5A3691B6993F880309B0701D49B
:103770002D4AEDE7C6B9E36D53B9626DB2B9236F57
:103780006A685B7C0133DBB25371226F53741FE0B4
:103790009D4207D1254A2248012107F03BFB6FF0EB
:1037A0001506CDE71B68E7E7214AD1E7954222D10C
:1037B0002A68D3B9A36D62659D4200D1A26500233A
:1037C0002B606B685B791B4A1548022106F0C2FF2B
:1037D000A968B9B1204607F0E1F9064670B1164A6A
:1037E0000F48012107F016FBAAE71A60A26D954267
:1037F00008BFA365E3E713461268BFE7A86807F0B0
:1038000050FAB87100232B60A36D1BB9C4E915559C
:10381000002695E71D60A565FAE700BF0BE80000EC
:1038200020D600002DE80000CCE700005BE8000097
:1038300078E8000098E80000B5E8000080B500AF27
:1038400088B06A46094BCDE905304FF40073ADF8F6
:103850001C30074B42F8103F064800234FF4E2515A
:10386000FDF724FC0020BD4680BD00BFECE8000051
:103870000300000130D6000070B5054681B128462E
:10388000FFF7DCFF0024204670BD636828461968F6
:10389000FCF736FC0028F6D01834B442F5D3EEE736
:1038A000014C024EF9E700BF8C050020A405002062
:1038B00070B501F07F0311F0800F18BF10330125A0
:1038C0009D4090F83030022B044606D00C4A0D483B
:1038D000012106F036FF002070BD90F8386007F037
:1038E000C5F832460146204607F09FFA0028F2D07C
:1038F000C0680028EFD083681D42EDD10068F8E76A
:103900000AE9000030D600002DE9F84305460846D4
:10391000114616461F46FFF7AFFF044600284AD05F
:10392000284607F0B1FA95F86C30DA0702D5234A39
:1039300001210CE0D4F8048004F11409BFF35B8F7B
:103940006369BFF35B8FDB070CD51D4A02211D485D
:1039500006F0F7FE6FF00F04281D04F087F92046EB
:10396000BDE8F883D8F804301BB1AB4201D0164A49
:10397000DEE73A463146284607F057FAC0B1002341
:10398000236003698BB9C0E90344BFF35B8F59E837
:10399000003F43F0010349E80032002AF7D1BFF3AA
:1039A0005B8F0024C8F80450D6E71C600461ECE784
:1039B0006FF03C04D0E76FF01204D0E70BE8000092
:1039C0002FE9000030D6000051E900002DE9F84F42
:1039D000814600AF16469846002938D06FF085041E
:1039E0002046BD46BDE8F88F6C68B8F1000F04D0E2
:1039F000A8F1040B5BF8041FF9B9216833460022D3
:103A00004846FFF781FF0446E0B16B686D468AB017
:103A10001B686A4610490796CDE905134FF40073F9
:103A2000ADF820300D4B42F8103F0D4800234FF405
:103A30001151FDF73BFBAD46D2E72068FCF760FB78
:103A40000028D7D118355545CED30024C8E7054DF9
:103A5000DFF814A0F7E700BF86E9000004000001CA
:103A600030D600008C050020A40500202DE9F04F81
:103A700083B000AF4C687B6097F830303B600E46F7
:103A80008146904606F0F2FFA3681B6B014633B9EE
:103A90006FF0150420460C37BD46BDE8F08F204678
:103AA00098470028F4D0051F002306F10C0A55F8AA
:103AB000041F09B10A781AB9BBB96FF03C04E9E7F1
:103AC0004A78042A13D183B98A7878688242EED181
:103AD000CA7838688242EAD10B790BB10123E6E754
:103AE0001B4A1C48032106F02CFE0024D2E7052ABD
:103AF000DDD1002BDBD0B8F1010F91F802B009D075
:103B0000B8F1020FEAD1D9F818005246594607F029
:103B1000CBFA04E0D9F81800524607F0A9FA044697
:103B20000028DBD06D468AB0F3686A460A490990DE
:103B3000CDE907B30623CDE9051842F8103F054843
:103B400000234FF44151FDF7B1FAAD46A2E700BFA3
:103B5000BEE9000058D60000DBE900002DE9F04185
:103B60000B7E0C465906054637D16BB306F0B7FFFE
:103B700040B11B481B4A012106F0E3FD4FF0FF3026
:103B8000BDE8F0812846D5F87080268AEF8D06F0D2
:103B90006DFFF8B1421E534253419B01228A9AB1F4
:103BA000BE42E98D324628BF3A4691420CD9B2FB5B
:103BB000F3F103FB11223AB994F91830002BBEBF80
:103BC000637E43F008036376A8692146BDE8F041AF
:103BD00007F015BE98F80730E0E76FF01500CFE763
:103BE00050D6000017EA000070B5064680690C4602
:103BF00007F0ABFD054638B10A4A0B4823460221BF
:103C000006F0A8FD284670BD14F0800F18BF24F000
:103C10008004736B4FF0010218BF1034A2401A43A6
:103C20007263EFE72BEA000050D6000070B505463E
:103C300080690E4607F0B3FD044638B1064A0748CE
:103C40003346022106F086FD204670BD314605F15F
:103C5000340007F0FEF9F7E742EA000050D6000012
:103C600070B50646EFF31181202383F31288BFF36A
:103C70006F8F1B4D2A6881F31188BFF36F8F5268D5
:103C800092F86C20D20705D4BDE8704021220023B1
:103C900004F0D6BAEFF3118283F31288BFF36F8F6B
:103CA0002C682CB1696823682B608C4208BF6B605C
:103CB00082F31188BFF36F8F44B1606804F108018B
:103CC000C36998470748214608F01DFE2B6833B1A9
:103CD00030460022BDE87040002304F079BA70BD80
:103CE000640E00206004002030B585B0CDE90012DC
:103CF000054600221448002303A903F04DFE0246A6
:103D0000E8B9039BDDE900015D60083383E8030047
:103D1000EFF31180202383F31288BFF36F8F039B8F
:103D20001A600A4A516861B9C2E9003380F3118808
:103D3000BFF36F8F06480022002304F049FA05B054
:103D400030BD0B605360F1E760040020640E00207A
:103D5000000000202DE9F04105691446AA6BD388C4
:103D6000528900AF9B1AE8468AB00E469BB26A465B
:103D70000D49CDE907430523CDE9051042F8103F71
:103D80000A484FF423510023FDF790F92246A86B0F
:103D9000C546314606F00EFC10B1012385F83D30D2
:103DA000BD46BDE8F08100BF6CEA000018D60000F7
:103DB00038B5034640681B695D68AC68A37A84F82F
:103DC000223094F82D3084F82330A376696849B105
:103DD000237C3BB906F0E2FE30B1064A06480121D9
:103DE00007F04BFA002038BD686806F05AFF2074CF
:103DF000F8E700BF8AEA000018D6000073B504692E
:103E00008DF807102025EFF3118685F31288BFF394
:103E10006F8F0122206C0DF1070106F0ABFB86F3DA
:103E20001188BFF36F8F012816D008F02CFFE8B17E
:103E3000124BBFF35B8F012253E8001F002903D10F
:103E400043E800200028F7D1BFF35B8F04D10C4A70
:103E50000C48022107F011FA237F2BB12122002305
:103E600004F1480004F0B4F902B070BDA37E002B49
:103E7000DED00021212008F0EAFFC4E76C0E00200C
:103E8000B4EA000018D6000008B5036918690021DB
:103E90000177883007F067FA012107F064FA034AD6
:103EA0000348BDE80840032107F0E7B9D3EA000062
:103EB00018D600002DE9F04750F8483C00F14006C4
:103EC0005B680546002130461F6807F0CDF90028E1
:103ED00066D00121304607F0C7F9814630B1314A3A
:103EE0003148BDE8F047032107F0C7B955F8083C51
:103EF0005A89DB889A4203D115F82D3C002B4FD00C
:103F0000BFF35B8F56E8004F44F0200346E80032D1
:103F1000002AF7D1BFF35B8F14F0200440D13B6936
:103F20005B689B68402293F83610384607F0D7F854
:103F3000804650B93046052107F015FA284621225F
:103F4000BDE8F047002304F043B915F82C3C33B129
:103F5000428AC16855F8080C06F02CFB044621463D
:103F600008F10C0006F02CFD2CB104F03F04B4FA6B
:103F700084F94FEA591905F82D9C4146384607F057
:103F8000B2F868B10121094A074807F076F94046BE
:103F9000FEF7A8F930460521BDE8F04707F0E3B980
:103FA000BDE8F087EAEA000018D6000018EB000030
:103FB00038B505690E492B6C0024C3E90144DC6067
:103FC000AB6B05F14800C3E90144DC6008F04FFE2B
:103FD00005F17800074908F01EFE074905F12800A1
:103FE00008F019FE284607F0DFF8204638BD00BF6C
:103FF000B53E00007D4200004943000040297FB5E6
:1040000039D00DD8102938D006D8012971D0082907
:1040100035D06FF015042BE02029FAD1042308E0F5
:10402000B1F5807F2DD0B1F5007F2CD08029F0D163
:10403000102304699BB2E1893AB30B4342F2A10118
:104040004FF40032E381CDE901120669ADF80C307E
:1040500043681C6806F188030021184607F004F93C
:10406000B0B9254A2548032107F007F96FF00C0481
:10407000204604B070BD0823DBE70223D9E7012303
:10408000D7E72023D5E74023D3E721EA0303D5E789
:104090000121184607F0E8F808B1194AE2E7236958
:1040A0005B689B680A2293F82610204607F017F8F1
:1040B0000546D8B10A2201A90C3006F087FC20463B
:1040C000294607F010F8044618B12846FEF70AF909
:1040D000CEE74FF0FF324FF0FF3306F18C0003F0D4
:1040E00081FE0B3008BF6FF08B04C1E76FF00B044B
:1040F000BEE70024BCE700BF2AEB000018D6000092
:104100004BEB00002DE9F04383B00D460169D0F878
:1041100004800C692B7E02AF0646002A39D0298A1A
:10412000713250480CBF504A504A00910CBF0221D6
:10413000012106F019FB33692A7E5B689B6893F8BE
:104140003D309A4204D1042104F1880007F00BF9B4
:1041500033692A7E5B689B6893F836309A4204D1B3
:10416000052104F1880007F0FEF833692A7E5B68B8
:104170009B6893F826309A4203D104F18C0003F037
:1041800057FE2946404606F0C6FF0437BD46BDE847
:10419000F0834A68926892F83D209A422AD1E94613
:1041A00088B002AA324B5361298A324B93614FF493
:1041B000007393830905304B42F8103F41F4E651F8
:1041C000EB682848FCF772FFCD462A8AE968A06BA5
:1041D00006F0D0F928B1236A1BB104F1280003F0DE
:1041E00087FF04F18800042107F0BDF804F178008E
:1041F00003F07EFF33692A7E5B689B6893F8363054
:104200009A4215D1236A1BB104F1280003F070FF14
:10421000052104F1880007F0A6F8237FABB900233D
:1042200040F6CD4204F1480003F0D2FF012323778A
:1042300033692A7E5B689B6893F826309A42A0D146
:1042400004F18C0003F098FD9BE7236CDA885B890E
:104250009A42EDD00022002304F1480003F0B8FF99
:10426000E6E700BF18D600006CEB000090EB000002
:104270007BD90000CEDD00000300000138B550F806
:10428000783C5B681D6800F1100302460021184667
:1042900006F0EAFF30B9274A0321BDE83840264836
:1042A00006F0EBBF0121184606F0DEFF0028F2D130
:1042B00052F8401C8A8888890969121A92B28A1AAF
:1042C0003F2A01D81D4AE7E7BFF35B8F53E8002F71
:1042D00042F0100143E800100028F7D1BFF35B8FD4
:1042E000D30602D5164A0221D7E72B695B689B6883
:1042F000402293F83D10284606F0F1FE0446C0B176
:10430000438A402B28BF402343820146284606F0BB
:10431000EAFE70B12B695B689B6893F83D300648F4
:10432000084A012106F016FA2046BDE83840FDF79C
:10433000D9BF38BDB1EB000018D60000DFEB00009C
:10434000FDEB00001DEC000038B550F8083C0446B9
:1043500033B92C4A2C48BDE83840012106F08DBF06
:1043600050F8283C5B6800F160051A6800238382DE
:1043700083830221284606F077FFB8B154E9023161
:1043800010699847637D1BB104F1500003F0B0FE43
:104390000521284606F068FF98B9637F6BB10022BB
:1043A000002304F1200003F013FF0AE00321284654
:1043B00006F05AFF0028E1D1E4E714F80D3C002B89
:1043C000EDD10221284606F04FFF38B12369DA8883
:1043D0005B899A4202D0204603F08AFE03212846D8
:1043E00006F042FF60B1A2699388918912695B1A55
:1043F0009BB29A4204D02046BDE8384003F078BE14
:1044000038BD00BF42EC000018D600002DE9F8438B
:104410000546D0F8108000AF1646EFF3118920232F
:1044200083F31288BFF36F8FD8F8400006F0A2F82C
:10443000044689F31188BFF36F8F10B1012388F808
:104440004530D8F840209388918912695B1A8AB068
:104450009BB2D31A6A460949CDE907630523CDE922
:10446000051542F8103F064800234FF42351FCF78E
:104470001DFE2046BD46BDE8F88300BF5AEC000093
:1044800018D6000010B50469BFF35B8F04F18803F0
:1044900053E8001F41F0080143E80012002AF7D159
:1044A000BFF35B8F226C9388918912695B1A9BB270
:1044B0009A420AD00548064A032106F0DEFE04F1BE
:1044C0002800BDE8104003F013BE10BD18D6000050
:1044D00082EC000038B50469BFF35B8F04F18805F6
:1044E00055E8003F43F0040345E80032002AF7D1C5
:1044F000BFF35B8FA36B5A89DB889A4208D00D48C3
:104500000D4A032106F0B9FE04F1280003F0F0FD86
:104510000421284606F0A8FE50B90648074A0321A0
:1045200006F0ABFE04F17800BDE8384003F0E0BDD2
:1045300038BD00BF18D600009DEC0000B8EC0000AC
:1045400070B506693469BFF35B8F04F1880555E8DF
:10455000003F43F0010345E80032002AF7D1BFF3E2
:104560005B8F0E480E4A032106F087FE0221284683
:1045700006F07AFE10B13046FFF7ACFF236A1BB994
:1045800004F1780003F0B4FD0123E37604F1480060
:104590000022BDE87040002303F01ABE18D60000C8
:1045A000D4EC0000F8B5036900AF0C4603F1A00598
:1045B000BFF35B8FD3F8A030BFF35B8FC3F38003EF
:1045C000994218D1184A194B6E4688B0002918BF75
:1045D00013466A461649CDE905134FF40073ADF84A
:1045E0001C30144B42F8103F134800234FF4E451A1
:1045F000FCF75CFDB546BFF35B8F5CB155E8003F4F
:1046000043F0040345E80032002AF7D1BFF35B8F83
:10461000BD46F8BD55E8003F23F0040345E80032ED
:10462000002AF3D0F6E700BF4CEE00000FED0000CB
:1046300016ED00000300000108D600002DE9F04748
:104640000546D0F808A0894690461F4606F02CFF84
:104650000446C0B1067DF30709D5037E1648174A04
:10466000012106F077F86FF07700BDE8F0873B4650
:104670004246494606F0D0FE40B9237E104A0E4815
:10468000012106F067F86FF01200EEE79DF8203088
:1046900084F8198026F00606678323772675DAF8F2
:1046A0001830214628469847227DB0FA80F35B09EE
:1046B00063F300022275D8E708D6000028ED000059
:1046C00042ED000070B50546866806F0EDFE044632
:1046D000D0B1037DDB0708D4037E0D480D4A0121CC
:1046E00006F038F86FF0770070BD0146F369284690
:1046F000984738B1237D03F00103227D63F3000264
:104700002275F1E70346F8E76FF01200ECE700BF0F
:1047100008D6000064ED0000F8B587680546FB6B1D
:104720000C469847286906F0ADFED0B121462846D0
:1047300006F0BAFE0646B8B1037D9B0705D0037E9E
:104740000B4A0C48032106F005F8346824B1BB6815
:10475000314628469847044628463B6C98472046F1
:10476000F8BD4FF0FF34F7E76FF01204F4E700BF35
:104770007FED000008D600002DE9F341D0F8088055
:104780001746D8F83C3005460E4698470C4800229C
:1047900000233946FDF728FD044670B9094A0A4846
:1047A00000963B46012105F0DFFF2846D8F840304F
:1047B0009847204602B0BDE8F0810676F5E700BFD5
:1047C000EC040020A0ED000008D6000010F0080F57
:1047D0000B4B42B20CD100F00F00002A4FF0140234
:1047E00002FB0033B4BFD3F80806D3F808077047BC
:1047F000002AB4BFD3F8A806D3F8A807704700BFB3
:1048000000700240F8B50246EFF31181202383F3D4
:104810001288BFF36F8F00F0080507F061F90124DB
:10482000844057066FEA04061BD0D5B9174F3B6882
:1048300023FA00F0C00714D533403B6053B2DB438A
:1048400022F08000DB0F00F2DA301B0103EB4003A3
:104850000F48C0F80038D0F8043843F00203C0F81D
:1048600004380C4803683340036035B90A480368CC
:10487000120654BF334023430360054BC3F86C4416
:1048800081F31188BFF36F8FF8BD00BFC80E002001
:1048900000700240CC0E0020D00E0020EFF31180FB
:1048A000202383F31288BFF36F8F0A4BD3F8001CC9
:1048B000032261B949F27531C3F8001CC3F8142D05
:1048C000C3F8001C80F31188BFF36F8F7047C3F8E3
:1048D000142DF7E700E00640EFF31180202383F367
:1048E0001288BFF36F8F0A4BD3F8001C61B949F2ED
:1048F0007532C3F8002CC3F8141DC3F8002C80F3E4
:104900001188BFF36F8F70470022C3F8142DF6E7AC
:1049100000E0064070B5024607F0E2F8EFF31185BB
:10492000202383F31288BFF36F8F531E0124062BBD
:1049300004FA00F40FD80E4E0E4B31681B680B437F
:10494000C34013F0010306D10B4802F594722143D2
:1049500040F822303160094A136823431360084B42
:104960008022C3F8042185F31188BFF36F8F70BDD7
:10497000C80E0020D00E002000700240CC0E002097
:1049800000E100E0F8B50306044623D410F0080760
:1049900020D100F00F02920002F1804202F51C3299
:1049A000D2F84434B3B1EFF31186202383F3128895
:1049B000BFF36F8F07F094F8084DC2F8A07401237D
:1049C00003FA00F12B6823EA01032B6086F31188B8
:1049D000BFF36F8F024BC3F81845F8BDD00E00200F
:1049E0000070024010B591F91800154B0A7E00289E
:1049F000B4BFD3F81045D3F8144502F00F020123D9
:104A0000934023420DD10E4A0028B5BFD2F81005BD
:104A1000D2F8140503430343B4BFC2F81035C2F8FB
:104A200014350B7E1A0709D4054AC2F80C3543F435
:104A30008073C2F80C35087EFFF7A4FF002010BD7C
:104A4000007002400B7E064A13F07F0F0BBF01235C
:104A500043F480735365C2F818350020704700BFD7
:104A60000070024070B506460D4606F01DFD044676
:104A700006F023FD28BB204606F042FD08B3802D3A
:104A800016D1437E9A0744BF0E4A15705B070FD5B7
:104A90000D4B1B7813B90D4B01221A65204606F009
:104AA0002BFD002201463046BDE8704006F041BDB6
:104AB0002846FFF72FFF20460121BDE8704006F091
:104AC00000BD70BD4A5200204F52002000700240CD
:104AD00038B50C4606F0E8FC054606F0EEFCB8B921
:104AE000284606F00DFD98B14CB9437EDA070FD485
:104AF0009B0704D5074B1C70074B0122DA64204644
:104B0000FFF708FF28460121BDE8384006F0D9BC70
:104B100038BD00BF4A5200200070024008B5054A67
:104B20000548032106F0E4FF07F028FE02F0EAFC46
:104B3000002008BDCEED000010D6000010B544687E
:104B4000206801F0ADF8104B1860104B1B782BB1AA
:104B50000F4B00221868114606F0DFFC00220121ED
:104B60002720FDF78FF8201D02F09AFC04F10800C1
:104B700002F0D4FC07F0FBFD064A0748032106F0CB
:104B8000B7FF002010BD00BF800E00204C52002057
:104B9000D40E0020D7ED000010D60000012810B57B
:104BA00003461AD002280AD000BB144B0246014625
:104BB000186806F0B2FC124B01221A700CE0114B7F
:104BC000114C00221A70114BC4F800332720FDF756
:104BD00029F80123C4F8043510BD084B0022014612
:104BE000186806F09AFC064B0022E6E7084A0948D6
:104BF000BDE81040012105F0ADBD00BFD40E00207E
:104C00004C5200204B52002000700240FDFFDF019B
:104C1000E3ED000010D600000146014808F02ABA72
:104C2000D804002008B5054B1970054B1B7813B14B
:104C30000420FFF7F1FF002008BD00BF4D52002007
:104C40004E52002010B50469087E0D4A06F048FF58
:104C5000012303FA00F013680343136003F0C4FE5A
:104C60004020FFF7D9FF4FF0FF324FF0FF3304F140
:104C70008401044803F020FB03F0CAFE002010BDAD
:104C8000C40E0020E40400202DE9F043064689B05C
:104C900007694D4A4D48032106F02AFF4C4B1E6020
:104CA00007F1840007F08EFE00220023CDE90623E1
:104CB00000246FF00703CDE90334CDE90144454BEF
:104CC000454900964FF40072444803F095FBDFF825
:104CD00010814449414807F0DCFFD8F81020424BCE
:104CE000134043F4820343F04003C8F81030C14638
:104CF00088F818404146304606F0E8FB3B4B3C4AFA
:104D0000054678B13B4A3148012106F0F1FE2846BC
:104D100009B0BDE8F083016919401143016108F150
:104D20002008E5E70134092C10D009EB4410082CC9
:104D3000817C41F040018174EDD1D9F810112E48E9
:104D400008402E490143C9F81011E8E72C4C2D4BBF
:104D50002269134043F4041343F040032361804667
:104D6000A14668F07F0121763046214606F0AEFB71
:104D70001E4B1F4A05460028C4D108F10108B8F1AE
:104D8000090F17D009EB4810B8F1080F817C41F0EA
:104D90002001817408D1D9F810111748084017492B
:104DA0000143C9F8101103E0016919401143016181
:104DB0002034D6E797F8803023F0760343F076036B
:104DC00087F88030A3E700BFFAED000010D600009E
:104DD000D40E0020B14E000098590020F80A00209F
:104DE000F80F002002EE00000000BEFF0000F9FFF7
:104DF000400006000BEE00000000F7FFFF01080076
:104E0000D80E00200000DEFF10B50C4620461146EB
:104E100006F078FB207E06F063FE0146034806F0AC
:104E200069FE0120FFF7F8FE002010BD1C110020D4
:104E300008B5064A0B7EC2F80C3543F48073C2F8FD
:104E40000C35087EFFF79EFD002008BD0070024073
:104E500010B50C7E4FF0FF324FF0FF33114802F0D7
:104E6000C1FF2046FFF7CEFC04F00F020123934060
:104E70000D4A14F0800F14BFD2F81015D2F8141593
:104E80006FEA030315BF0B400B40C2F81035C2F8A0
:104E90001435044802F070FF044B8022C3F804214B
:104EA000002010BDB80400200070024000E100E0C6
:104EB0002DE9F04FB44D85B004464FF0FF384FF068
:104EC000FF390022CDE900894FF0FF31AF4808F0EB
:104ED000D8F8AE484FF0FF3108F0CFF80746380752
:104EE00033D5AB4AAB48032106F002FEAA4842463E
:104EF0004B4602F077FFEFF31182202383F31288F1
:104F0000BFF36F8FA54B1B787BB1D5F8003413F43A
:104F100000730AD10121C5F82C15D5F82C15D5F848
:104F20000014890548BFC5F82C3582F31188BFF3FA
:104F30006F8F994802F020FF01212046FFF732FBD6
:104F400000220321204606F0E8FAFE060DD5944A19
:104F50009048032106F0CCFD00212046FFF722FBFC
:104F600000220221204606F0D8FAB8060DD58D4A57
:104F70008848032106F0BCFD00212046FFF712FB04
:104F800000220221204606F0C8FAB9075CD4FA07CD
:104F900010D5BFF35B8F844B002253E8008F43E8AA
:104FA00000210029F9D1BFF35B8F0126B8F1000F72
:104FB00040F0AB8079072FD5D5F88004C0B28DF8CA
:104FC0000800D5F88414C9B28DF80910D5F88834D2
:104FD000D5F88C2443EA02239BB2ADF80A30D5F809
:104FE0009024D5F8946442EA0622ADF80C20D5F856
:104FF0009824D5F89C6442EA062292B26B4EADF832
:105000000E20002840F09A80052940F09780012169
:105010003170002A00F09E807B067FF54EAF20693C
:1050200084304FF0FF324FF0FF3302F0ADFD604EA1
:105030003168002940F0CA805E4803F007F9206912
:10504000843002F013FE38E75B4BBFF35B8F002226
:1050500053E8008F43E800210029F9D1BFF35B8FAB
:105060004FF0010BB8F1000F91D098FAA8F3B3FA02
:1050700083F30F2B1E46C6BFA3F11006F6B246F00F
:1050800080060BFA03F328EA03083306314620466C
:105090001FD506F009FA824606F02EFA814650B96D
:1050A000464A3C483346012105F054FB3146204630
:1050B000FFF7D8FCD6E70021504606F002FA00229E
:1050C0004946204606F035FA802E08BFC5F850B094
:1050D000ECE706F0E9F9824606F00EFA814650B98F
:1050E000374A2C483346012105F034FB314620462F
:1050F000FFF7EEFCB6E75046002106F0E2F9002289
:105100004946204606F015FAF0E798FAA8F3B3FAF4
:1051100083F30F2B1946C6BFA3F11001C9B241F0AA
:10512000800106FA03F30A0628EA0308204602D59E
:10513000FFF798FC3AE7FFF7CBFC37E7214900235C
:105140003370D5F87024097891420AD11E4B0022A1
:105150001A7013E003F07F03ADF80A30ADF80C20AD
:10516000F4E7194901220A7032704FF4A062ADF8D9
:105170000820D5F87024ADF80A20039302A9204630
:1051800006F0FEF948E700BF00700240D804002096
:1051900027EE000010D60000B80400204B5200207B
:1051A0003EEE000054EE00001C1100204F52002083
:1051B000C40E0020E4040020181100206CEE000052
:1051C00085EE00004D5200204E52002091FAA1F7CA
:1051D000B7FA87F70F2F3946C6BFA7F11001C9B23A
:1051E00041F08001204606F05FF9804690F8189063
:1051F0004FF0FF324FF0FF33134802F0F3FD484603
:10520000FFF700FB104802F0B7FD104B8022C3F8F7
:1052100004214146204606F0A4F90021404606F04C
:1052200050F9BFF35B8F0123BB40094ADB4352E8CF
:10523000000F184042E800010029F8D1BFF35B8F4E
:10524000326813403360F3E6B804002000E100E068
:10525000181100204FF08053D3F83031082B02BFD3
:10526000024B0022C3F81C2C704700BF00700240A4
:105270002DE9F04105464FF0FF324FF0FF33414832
:1052800002F0B0FD404B8022C3F884212720FCF7B8
:10529000EBFCA8B13D4F3E4B3C681B686FF30F041D
:1052A0001C434FF00108002C37D13A4E40F2FF1357
:1052B0003B602720C6F80445FCF7C2FCC6F8004353
:1052C000354A13788BB1334B0021C3F80811012103
:1052D000C3F80026C3F804165960D3F80811002952
:1052E000FBD00021C3F8081111702A4B0024C3F829
:1052F0000045FFF7AFFF234802F03EFD2146284658
:10530000FFF7E0F9F0B1254A2548012106F0F0FB4E
:105310006FF004052846BDE8F08194FAA4F6B6FAC9
:1053200086F60F2E3346C6BFA6F11003D8B243F05F
:105330008000030701D4FFF765FA08FA06F624EAAD
:105340000604B0E728468021FFF7BCF9054600288F
:10535000D9D1144B14491E68304605F083F810F17A
:10536000780F044603D1304605F058F80446002C67
:10537000D0DA0E4A0A482346012105F0EBF925460A
:10538000C8E700BFB804002000E100E0D00E002014
:10539000CC0E00200070024048520020A2EE000017
:1053A00010D60000800E0020700E0020C5EE000018
:1053B0002DE9F04FAD4BDFF8B8A2D3F85421AD4F33
:1053C00087B00AB30022C3F85421D3F80423910212
:1053D0001AD5D3F8C034002B14BF4FF001224FF47C
:1053E0008072A54B9B683BB99AF8000006F078FBE9
:1053F0000123834022EA03023B6813439F4A3B6038
:10540000136823F001231360984BD3F8604134B143
:105410000022C3F86021D3F86C44C3F86C44D3F87D
:1054200028214AB10022C3F82821954B187806F0AC
:1054300057FB012383401C439AF800509AF90080DF
:105440002A0700F10B81B8F1000FB4BF8D4B8E4BD2
:1054500005F00F02920013441A684AB300221A6042
:105460002846FFF7B3F9894B1A7800F00100504045
:105470001870FFF7EFFE864B28461A6806F030FBDF
:10548000C240D307064600F12381B8F1000F80F235
:105490000F81882D00F00C81784A01231168B340F8
:1054A0000B43136081238AF80030734802F064FCD8
:1054B0008CB13B68714ADFF8DC9124F001210B4389
:1054C0003B60136823EA01031360A4B24FF00108A4
:1054D000002C40F00381654BD3F800217AB1002401
:1054E000C3F800416C4B1C706C4A6D48032106F0F8
:1054F000FFFA684B22461868042106F00EF85B4B51
:10550000D3F858212AB30022C3F85821D3F8004415
:10551000C3F80044E00505D55F4B012208201A704E
:10552000FFF77AFBA10505D55B4B002210201A700E
:10553000FFF772FB62050CD5574B1A784AB100226F
:105540001A704A4B0122C3F8082520209A65FFF7FC
:1055500063FB464BDFF838B1D3F85C31F3B1464B0F
:105560009B681BB99AF800305B0617D03F4B0022AE
:10557000C3F85C21DBF80030404A23F00113CBF87C
:1055800000303B6823F4803343F001033B60136831
:10559000042023F001131360FFF73EFBDBF800400B
:1055A0003B681C4000F03381304BD3F82C95B9F1A7
:1055B000000F40F02C8130480022002302F012FC42
:1055C000002840F0248114F001230CBF94FAA4F3C6
:1055D00093FAA3F3B3FA83F30293029B9DF8084076
:1055E0000F2BC8BF103C2B4BCCBFE4B244F080045F
:1055F0001868214605F058FF039005F081FF63B25B
:10560000049304F00803059363B2002B064680F26E
:105610009C80039B058A5B8BD0F80C80C3F30A0344
:105620009D4240F28C801D46002608F06043B3F195
:10563000005F06D041461B48DFF868802A4607F025
:1056400036FD002E00F0B380029B01229A40DBF869
:10565000003023EA0203CBF80030A8E0124B134AD3
:1056600033EA280328BF1346F6E600BF0070024065
:1056700049520020D00E0020B8040020C80E00209F
:105680004A52002008710240307102404852002006
:10569000CC0E0020D40E00204B520020DCEE000087
:1056A00010D60000840E0020507102402C71024080
:1056B0006348314606F01EFA0220FFF7ADFAB8F152
:1056C000000FFFF6E9AE013D062D7FF6E5AEE9E6F7
:1056D000002DF4D15B4B0122DA64E3E694FAA4F5E1
:1056E000B5FA85F508FA05F345F080052946D9F89D
:1056F000000024EA030405F0D7FE05F001FF06468A
:105700002846FFF763F8014606F10C0005F080F922
:10571000338A002B7FF4DCAE304605F0F5FE18B17D
:10572000304605F0F5FED3E6284606F0D9F90146E5
:10573000434806F0DFF90220FFF76EFAC8E605F0ED
:10574000E3FE80F00106F6B26FE704F008023D4B7D
:10575000002A5FD0D3F8C03413F4803F08BF9946C5
:10576000328AF368758A03EB0208AD1A72699B1AD4
:10577000ED1A4D4553D2344A344800954B46012129
:1057800004F0F2FF294606F10C0005F019F9039B1D
:105790005B8BC3F30A034B457FF456AFF268716924
:1057A000738A521A9B1A328A93423FF44DAF4FF0DC
:1057B00080530121D3F83031082B02BF214B8222C4
:1057C000C3F81C2C029B3A688AF8004001FA03F3E4
:1057D00022EA03023A6004F008021A4B0ABB049A58
:1057E00004F00F04002A4FF0140202FB0432A9BF98
:1057F0000A3403EB8403C2F80087C2F80457AFBF32
:1058000043F82410C2F80086C2F80456596007B065
:10581000BDE8F08F04F5947253F82290A0E74D464E
:10582000B0E7049A002AB5BFC3F8A086C3F8A087E2
:10583000C3F8A456C3F8A457B4BF59629964E6E705
:105840001811002000700240E2EE000010D60000A7
:1058500010B5EFF31184202383F31288BFF36F8F09
:10586000164B1B7803F0FF02CBB11549D1F82C354C
:1058700013B30023C1F82C354FF08053D3F83031E7
:10588000082B0CD10F4BD3F8000CC02188B949F27A
:105890007530C3F8000CC3F8141CC3F8000C84F373
:1058A0001188BFF36F8F002A0CBF6FF00A00002031
:1058B00010BDC3F8141CF2E71A46F0E74B52002063
:1058C0000070024000E0064073B5002200921146CD
:1058D00040230446FEF7B2FE024648B1604A6148E2
:1058E000012106F005F96FF00404204602B070BDF6
:1058F0000090402320468021FEF7A0FE04460028A9
:10590000ECD15949594B4860C860012618688E602F
:1059100004F039FD051E07DA554A52482B46314638
:1059200004F018FF2C46E0E7EFF31185202383F302
:105930001288BFF36F8F4F4B4FF40062C3F80024FF
:1059400006F0C0F808B1FEF7A9FF4FF08053D3F876
:105950003031082B18D1EFF31180202383F3128804
:10596000BFF36F8F444BD3F8001CC022002970D1C5
:1059700049F27531C3F8001CC3F8142CC3F8001C9D
:1059800080F31188BFF36F8F3A4B0122C3F80025D3
:10599000D3F800241205FBD54FF40062C3F80024AD
:1059A0004FF08053D3F83031082B17D1EFF311802B
:1059B000202383F31288BFF36F8F2F4BD3F8001C83
:1059C000002949D149F27532C3F8002CC3F8141CE0
:1059D000C3F8002C80F31188BFF36F8F06F072F8C4
:1059E00030B1FEF779FF06F06DF808B1FEF756FF0B
:1059F0004FF08053D3F83031082B1E4B0AD140F2C0
:105A0000E372C3F800284022C3F80428BFF36F8F65
:105A1000BFF34F8F8022C3F81C250122C3F8302525
:105A2000164B40F2FF121A60154B00211960154BFE
:105A30001960154B1970FFF70DFC144B197006F027
:105A400041F808B1FEF748FF85F31188BFF36F8F67
:105A50004BE7C3F8142C93E70022C3F8142CB9E7E2
:105A600001EF000010D60000700E0020800E002014
:105A700023EF00000070024000E00640D00E00203E
:105A8000CC0E0020C80E0020485200204A520020B0
:105A9000084B70B5C31A0D4607499B10044659437D
:105AA0000648402206F06BF82B4601462046BDE82A
:105AB0007040184734110020B76DDBB638D20000B3
:105AC00073B50C4C0C4A4023041B00930D460B4647
:105AD0000A49A41061430646094806F07CF80146CD
